:100000000C9429010C9461010C9461010C94610120
:100010000C9461010C9461010C9461010C946101D8
:100020000C9461010C9461010C94FA1A0C94CD1B90
:100030000C94FF150C9461010C9461010C94610106
:100040000C9461010C9461010C9461010C946101A8
:100050000C9461010C9497160C9461010C9461014D
:100060000C9461010C9461010C9461010C94610188
:100070000C9461010C9461010C9461010C94610178
:100080000C9461010C9461010C9461010C94610168
:100090000C9461010C9461010C9461010C94610158
:1000A0000C9461010C9461010C9461015F0060008B
:1000B000610054005C005D005E00550059005A006C
:1000C0005B00560062006300580057006200630046
:1000D0005800570062006300580057000E03630089
:1000E00061006C0063003200340000001C034F000C
:1000F000720069006F006E00200041006E00640015
:10010000720065007700730000000403090409020F
:100110003B00020100A0FA090400000103010100F4
:100120000921110100012240000705810308000197
:10013000090401000103000000092111010001224E
:10014000B600070582032000011201000200000032
:1001500008EDFE000000010102000105010902A1F5
:100160000185020901A100050919012908150025C9
:1001700001950875018102050109300931158125B4
:100180007F95027508810609381581257F950175CF
:10019000088106050C0A38021581257F950175082E
:1001A0008106C0C005010980A101850319012AB794
:1001B00000150126B700950175108100C0050C09D6
:1001C00001A101850419012AA002150126A00295AA
:1001D0000175108100C005010906A101850605070A
:1001E00019E029E715002501950875018102050729
:1001F000190029EF1500250195F075018102050808
:100200001901290595057501910295017503910163
:10021000C005010906A101050719E029E715002518
:10022000019508750181029501750881010507197D
:100230000029FF150026FF009506750881000508B6
:100240001901290595057501910295017503910123
:10025000C00011241FBECFEFDAE0DEBFCDBF04B671
:1002600003FE18C08091840290918502A0918602BD
:10027000B09187028730904BA740B04B59F4109251
:100280008402109285021092860210928702E0E0AA
:10029000F8E3099511E0A0E0B1E0E2E1FDE302C07E
:1002A00005900D92A238B107D9F722E0A2E8B1E09B
:1002B00001C01D92A438B207E1F70E9419100C94F6
:1002C000351E0C940000811111C0663078F4443062
:1002D00068F484E0689FF0011124E40FF11DEE0F33
:1002E000FF1FE455FF4F85919491089580E090E0C1
:1002F00008950E946301089581E0089581E00895C2
:100300000E947E01089508950E9483010895A5E04A
:10031000B0E0EDE8F1E00C94A11D49835A833091DF
:10032000890189819A81311119C0662399F02223AC
:1003300089F00E943707182F682F89819A810E94BF
:10034000140769817A81812F0E94980D2596E3E038
:100350000C94BD1D0E942507182FF3CF0E9437076C
:1003600069817A81F1CFFC01262F40815181628120
:10037000738184810E948701089581E00895CF935D
:10038000DF93D82FC92F60E00E94B3016D2F7C2F1F
:100390000E948401DF91CF9108950E94CE0E0895AE
:1003A0000E94D20E089508950E94E0050E94D30194
:1003B0002FEF84E39CE0215080409040E1F700C0A3
:1003C000000008950E94D4010E94BB1608950E9467
:1003D000D4010E94DF1608950F931F93CF93DF93EC
:1003E0008C0161E00E94B301EC01B8010E94800120
:1003F0008823B1F1B801CE010E941B14882381F13A
:10040000B801CE010E94A512882351F1B801CE0196
:100410000E948113882321F1F8018281882381F0D1
:10042000CA35FCE7DF0739F178F4C130ECE7DE07C5
:10043000F9F0C330FCE7DF07C9F0C115DC4771F004
:10044000C8010E947C010DC0CB35ECE7DE07B1F09E
:10045000CC35DC47A9F70E943C0BF2CF0E94E201A9
:1004600080E0DF91CF911F910F9108950E944E0B74
:100470000E94E701F5CF0E94460BE2CF0E944A0B93
:10048000DFCF0E94DC150E946B0208950E946F026C
:100490000E94E115089508950E944B02089581E09D
:1004A00008950895CF93DF93D82F0E944F02C82F4D
:1004B000882319F08D2F0E9451028C2FDF91CF914C
:1004C00008950895CF93C82F0E944C028C2F0E944C
:1004D0005202CF91089580E00E94620208950E9426
:1004E00066140E9462020895CF930E946614C82F7A
:1004F000809184018C1779F0C09384010E946B165F
:1005000060938501709386018093870190938801A1
:100510008C2F0E946202CF910895ABE0B0E0E3E936
:10052000F2E00C949E1D142F4F83052F5887698786
:100530007A878B87EA84FB8461110E94850A1E8278
:1005400085E0FE013796DE01119601900D928A95A5
:10055000E1F7E114F10461F449815A816B817C81F6
:100560008D819E810E94AB092B96E6E00C94BA1D0A
:1005700010231F3F89F3CE0101960E94BD01811116
:10058000EBCFF2CFFC01808191810E946907089531
:10059000662329F00E94AA100E946B1108950E9400
:1005A000F310FACFCF93C82F8823B9F08CEF8C0FBC
:1005B000813AA8F46C2F80910001909101010E9472
:1005C000FF14882329F08C2F0E94420A0E94A60A59
:1005D0008C2F0E943A0A0E94A60ACF91089580E2C9
:1005E0008C0F883048F4C77081E001C0880FCA952D
:1005F000EAF70E94660AEFCF8BE58C0F833038F460
:100600002C2F2452330BC9010E949D14E6CFE8E53C
:10061000EC0FE93150F4F0E0EE0FFF1FED5EFE4FFE
:10062000808191810E94C314D8CF83E38C0F8331E2
:10063000A0F661E08C2F0E94C802CFCF882381F101
:100640009CEF980F913A28F40E94420A0E94A60A51
:10065000089590E2980F983050F4877091E001C0AF
:10066000990F8A95EAF7892F0E946C0AEFCF9BE5D4
:10067000980F933028F480E090E00E949D14089534
:1006800098E5980F993128F480E090E00E94C31417
:10069000089593E3980F933118F460E00E94C80224
:1006A00008951F93CF93DF93182FEB010E94D2027E
:1006B000209739F4812F0E941E03DF91CF911F9163
:1006C00008958FE99FE00197F1F700C0000021979E
:1006D000EFCF60E070E0893311F460E570E00E94D4
:1006E00051030895882321F00E94660A0E94A60AF9
:1006F0000895882321F00E946C0A0E94A60A08959A
:10070000A0E0B0E0E6E8F3E00C949C1D6C01D62F6D
:10071000C72FFC011281058102950F700E945B0AB0
:10072000E82E8823B9F0E12E1123A1F08C2F807FD1
:10073000803421F080E28D0F8830B8F0809166021D
:1007400082FF13C082E00E94090B0E945B0A91E0C5
:10075000E82EE926EC2FE295EF70C03C08F062C06D
:10076000F0E0E95CF14E0C948C1DE12CF3CF0C2FE2
:100770000F70C03110F00295007F112399F0002313
:1007800059F080E28D0F883010F0D11107C0802F12
:100790000E94660A0E94A60A8D2F42C0802F0E94E6
:1007A000770AF8CF8D2F0E941E030023D9F180E233
:1007B0008D0F883010F0D11104C0802F0E946C0A78
:1007C00003C0802F0E947D0A0E94A60A2BC0FC2F26
:1007D000FF70FF2EC07FC03219F0F29480EFF82234
:1007E000DD2381F0D13009F45EC0112309F466C025
:1007F000002309F45DC0F601858180FFCDCF8F70A5
:10080000858356C08091660282FD2BC0112311F1B1
:10081000FF2029F08F2D0E94660A0E94A60A80E020
:100820000E94D202EE2089F00E94570A80FD0DC07E
:10083000F60112820E94510A0E947106C6010E94AE
:10084000A1050E94510A0E948106CDB7DEB7E8E0FB
:100850000C94B81D80E00E941E03FF2019F38F2D19
:10086000ADCF112381F0011106C00E94880A8F29A3
:100870000E947203D7CF0130C1F70E94880A8F29E6
:100880000E948F0ACFCF011106C00E949C0A8F2DB3
:100890000E947903C7CF013029F28F2D0E9479037E
:1008A0000E949C0ABFCF112329F0063008F0BACF6E
:1008B0008F2DDECF053008F0B5CFE9CF002339F317
:1008C000D93349F4FFEF27EE63E0F1502040604058
:1008D000E1F700C000008D2F0E941E03A3CF8C2FD4
:1008E000869586958370882369F0813009F09ACFC8
:1008F0008D2F9C2F9370111102C080E090E00E9418
:10090000C31490CF8D2F9C2F9370111102C080E0E3
:1009100090E00E949D1486CF612F8D2F0E94C80207
:1009200081CF8C2F8370811139C0111129C04D2FB7
:10093000429546954770440F440F2D2F2F7030E09D
:10094000042E02C0220F331F0A94E2F780E090E0E9
:10095000D4FF09C08FE090E002C0880F991F4A952C
:10096000E2F780959095C695C695C370822B932B20
:10097000C23071F0C33079F0C13039F00E944106C5
:100980000E9466140E9462024DCF0E943806F8CF82
:100990000E944A06F5CF0E943506F2CF112361F17D
:1009A000C0FFEECF8D2F829586958770880F880FB8
:1009B0004D2F4F7050E0082E02C0440F551F0A946F
:1009C000E2F7D4FF1CC02FE030E0F90102C0EE0FC7
:1009D000FF1F8A95E2F7CF0180959095C695C69541
:1009E000C370842B952BC23081F0C33089F0C130A5
:1009F00049F00E94AC06C4CF823010F2D3CF80E021
:100A000090E0ECCF0E94A306BBCF0E94B506B8CF02
:100A10000E945906B5CFCF70112339F08C2F0E9458
:100A200071068D2F0E947203ABCF8D2F0E94790328
:100A30008C2F0E948106A4CFD23F31F170F4D03FB9
:100A4000B9F0D13FB1F1112309F451C0002309F4E9
:100A50004BC08D2F0E94D20293CFD33FE1F0D43F01
:100A600021F11111F3CF011150C08C2F8F71E1CF03
:100A7000112341F0053008F083CF8C2F8F710E9435
:100A800093067ECF0530F7CF8C2F8F711111D1CF08
:100A90000E94710675CF112329F08C2F8F710E944F
:100AA00065066ECF0E9460066BCF8091660282FD64
:100AB00006C08C2F8F71112309F4BBCFE9CF11230E
:100AC00049F0CF718C2F0E94710663E08C2F0E9439
:100AD000EB0A56CF81E00E94090B023008F450CF98
:100AE00082E00E94090B4CCF8C2F8F71D1CF002355
:100AF00009F4BBCFD93349F4FFEF27EE63E0F1509F
:100B000020406040E1F700C000008D2F0E941E03CE
:100B100037CF0F931F93CF93DF93EC0168817981D7
:100B20008A810E9476078C010E94BE060E943406CC
:100B3000B801CE010E948003DF91CF911F910F91E8
:100B40000895CF93DF93EC01988189812B813C81BB
:100B5000232BB1F089238F3F99F0CE010E94EC0145
:100B6000811111C00E945B0A882351F08A81882379
:100B700039F08091660282FF03C082E00E94090B77
:100B8000DF91CF910895CE010E948905CE010E9488
:100B9000BF01F6CF80E090E00E949D1480E090E0DD
:100BA0000E94C3140E94850A0E94A60A0E9488110E
:100BB0000E946B1108950E944A0A0E94CA05089576
:100BC0000E94740A0E94DB050895282F92959F7059
:100BD000963091F060F4925F9F70923030F481E033
:100BE000203F79F030F4283E30F080E008959A5F9D
:100BF000F3CF243FD1F7089581E0283EE0F3213F71
:100C0000F9CF0895FC0183819481892B61F0818162
:100C1000908189238F3F39F0808191810E946907FB
:100C20000E94E505089580E00895A5E0B0E0EBE1BD
:100C3000F6E00C94A21D2596E2E00C94BE1DA6E001
:100C4000B0E0E5E2F6E00C94A21D2696E2E00C94FA
:100C5000BE1D08950E94290608950E942A069093B9
:100C6000990180939801089508950E942D06089592
:100C70002091980130919901822B932B0E942D068F
:100C800008952091980130919901822393230E9425
:100C90002D0608952091980130919901822793277C
:100CA0000E942D0608950E94290608950E94530669
:100CB00008950E9456069093970180939601089597
:100CC00080E090E00E945906089521E030E0A901FB
:100CD00002C0440F551F8A95E2F7CA010E945906C7
:100CE000089521E030E002C0220F331F8A95E2F719
:100CF0008091960190919701822B932B0E94590627
:100D0000089521E030E002C0220F331F8A95E2F7F8
:100D1000209530958091960190919701822393239D
:100D20000E945906089521E030E002C0220F331FCF
:100D30008A95E2F7809196019091970182279327F7
:100D40000E94590608952091960130919701822BB7
:100D5000932B0E9459060895209196013091970196
:100D6000822393230E945906089520919601309181
:100D70009701822793270E945906089508959B01A1
:100D8000677091E001C0990F6A95EAF763E03695C4
:100D900027956A95E1F7220F331F220F331FFA01BF
:100DA000E20FF31F40E050E0682F70E08191DF0117
:100DB00011979B01042E02C0369527950A94E2F7FD
:100DC000217021952827292328272C934F5F5F4FD7
:100DD0004430510559F708959C01982F977083E08E
:100DE000369527958A95E1F7220F331F220F331F7F
:100DF000FB01E20FF31F40E050E080E0219130E082
:100E0000092E02C0369527950A94E2F72170332700
:100E1000042E01C0220F0A94EAF7822B4F5F5F4F26
:100E20004430510559F70895282F862F963060F4E5
:100E3000243050F434E0939FB0011124620F711DEF
:100E40004AE851E00E94BF060895282F963068F4C2
:100E5000843058F434E0939FC00111246AE871E0B3
:100E6000820F911D0E94EC06089580E00895A0E095
:100E7000B0E0EDE3F7E00C949B1D8C01E09096014F
:100E8000F09097018091980190919901E82AF92AB0
:100E9000CFE0D0E0CC24C394D12CC6010C2E02C0EC
:100EA000880F991F0A94E2F78E219F21892B49F41C
:100EB000219798F7B12C8B2DCDB7DEB7E9E00C94D4
:100EC000B71DBC2EB8018C2F0E94A40D019781F391
:100ED000F2CFCF93DF93D82FC92F0E9437076D2F02
:100EE0007C2F0E94A40DDF91CF9108951F93CF9383
:100EF000DF93162FD72F90918901992341F0862FE8
:100F0000972F0E946907DF91CF911F910895882341
:100F100081F0862F972F0E943707C82F682F812FC7
:100F20009D2F0E941407612F7D2F8C2F0E94A40DEE
:100F3000EACF862F972F0E942507C82FF4CF0F9353
:100F40001F93CF93E0919A01C6E080919B018E138D
:100F500004C0CF911F910F9108950E2F10E0CE9FE6
:100F6000F0011124E456FE4F40815181628173816A
:100F7000848195810E941F06F8013196E770E5CFC4
:100F80004091CC015091CD016091CE017091CF0183
:100F90008091D0019091D1010E941F0608951F9366
:100FA000CF93DF938091D101803108F04CC08091C4
:100FB000CE01882309F447C080919A0120919B01BA
:100FC0006091CC013091CD01C091CF01D091D00181
:100FD000732F76232817B9F190E0209709F443C0C6
:100FE00016E07F3F09F43FC0189FF001199FF00DF4
:100FF0001124DF01A456BE4F11964C911197341362
:101000002CC04C91461329C012964C911297411155
:101010001EC013964D915C914C1B5D0B483C5105D5
:10102000E0F48091D1018F7080618093D101EF5500
:10103000FE4F80818F70806180838CEC91E00E94F4
:10104000A1050E949F07DF91CF911F9108950196FE
:10105000877099272813C8CFF6CF019687709927F4
:101060002813BFCFF0CF01968770B4CF8F929F9295
:10107000AF92BF92DF92EF92FF920F931F93CF93A5
:10108000DF93CDB7DEB72B970FB6F894DEBF0FBE58
:10109000CDBF8C0185E0F801DE01179601900D921D
:1010A0008A95E1F7F801F280A380B4808CEC882E59
:1010B00081E0982E9091CC012091CD014091CF01FB
:1010C0005091D0014115510509F431C1822F892376
:1010D0008F3F09F42CC1D090CE01B501641B750B74
:1010E000DD2009F4E8C08091D101683C710508F069
:1010F000BBC03181803108F079C0EF2C321314C0AD
:101100002081291311C0F1101EC08F70806180935F
:10111000D1010E94C007C4010E94A1058091D101A4
:10112000F8018583E12C4FC09F818885AB2889F029
:10113000282F29232F3F69F0E0919A0120919B01EC
:1011400036E0FF20E1F08091D10181608093D101F0
:10115000E9CFFF2039F3F7CF4E2F50E03E9FF0014B
:101160001124E456FE4F6181861306C06081691325
:1011700003C062816111D6CFFA013196E770E213A4
:10118000EBCF8F8198850E946907292F22952F70B8
:10119000903248F49F70992311F08823A1F0805E6B
:1011A000883088F004C0225F2F70223028F0C801F8
:1011B0000E94A105ED2C07C09F70992381F3F801CF
:1011C0009581903160F78E2D2B960FB6F894DEBF87
:1011D0000FBECDBFDF91CF911F910F91FF90EF9088
:1011E000DF90BF90AF909F908F900895321312C000
:1011F000208129130FC0F1100DC08583C8010E9402
:10120000A10586E0F801ACECB1E001900D928A9561
:10121000E1F725C0C8010E940206882309F47BC0BB
:10122000FF2009F478C08091D101803270F02091C4
:10123000CC013091CD013A8329831B82BD82AC82DF
:101240008E83CE0101960E94A10586E0F801ACECE8
:10125000B1E001900D928A95E1F70E94CF070E94BC
:10126000C007EE24E394AFCF803198F44F815885C6
:1012700069857A858B850E9415068CEC91E00E9429
:10128000A10586E0F40111928A95E9F70E94C00752
:1012900049CF31812313BECF20812913BBCFF11059
:1012A000B9CF8583C8010E94A10586E0F40111929F
:1012B0008A95E9F7D6CF683C710588F5FF2059F18A
:1012C000818128131EC0808189131BC08091D101A8
:1012D00080FD0EC0803160F08583807F803F09F4FF
:1012E0008DCF8581982F907F905F8F70892B85CFD0
:1012F00086E0F801ACECB1E001900D928A95E1F73F
:10130000B0CFC8010E94020681119FCF8091D10108
:1013100081608093D101C8010E94A105A2CF4F81B5
:10132000588569857A858B850E941506AACFFF208E
:1013300091F3C8010E940206882369F386E0F80150
:10134000ACECB1E001900D928A95E1F78CEC91E064
:101350000E94C20282CFACE0B0E0E1EBF9E00C9475
:10136000A11D4F83588769877A878B879C87CE0119
:1013700007960E9436088823D9F08A859B85892B99
:1013800061F058854F81852F84238F3F31F0698527
:101390007A858B859C850E941F0616E080919A01B4
:1013A00090919B01891344C02C96E3E00C94BD1DE1
:1013B00086E0FE013796DE01119601900D928A9526
:1013C000E1F78F81988520919B0140919A016A8570
:1013D0007B85672B11F389238F3FF9F230E0C90138
:1013E00001968770992750E08417950771F40E9441
:1013F000E00510929B0110929A0186E0ECECF1E07E
:10140000DF011D928A95E9F7C8CF96E0929FD0013F
:10141000939FB00D1124A456BE4FFE01319601904A
:101420000D929A95E1F780939B010E949F07B5CF9B
:10143000189FC001112484569E4F0E9436088823AD
:1014400009F4B2CFE0919A011E9FF0011124E456F5
:10145000FE4F4081518162817381848195810E9418
:101460001F0680919A0190E00196877099278093DA
:101470009A0194CF682F80910001909101010E9400
:1014800086150895682F80910001909101010E94B6
:101490009415089580910001909101010E94A21578
:1014A00008958091F201859585958595089580919F
:1014B000F201877008959091F201977081E0911187
:1014C00001C080E008958091150208959091150261
:1014D000982B909315020895982F9095809115025E
:1014E0008923809315020895109215020895909112
:1014F0001402982B909314020895982F9095809140
:1015000014028923809314020895109214020895FE
:101510008091F301089508950E948B0A0895909197
:10152000660292FF08C09091F301981721F0809312
:10153000F3010E948C0A08958091F301882329F019
:101540001092F30180E00E948C0A0895CF93DF93FC
:10155000E0910001F0910101809115028083E091FA
:101560000001F0910101808190911402892B808308
:101570009091F301992381F0E0910001F091010134
:101580008081892B808380910001909101010E94CC
:10159000E91481110E949C0AC0910001D0910101BF
:1015A00040E250E062ED71E0CE010E94DD1D892B2A
:1015B00059F080E2FE01A2EDB1E001900D928A9512
:1015C000E1F7CE010E947314DF91CF910895089541
:1015D0000E94E70A08959091660292FF11C098E078
:1015E000899F90011124622B6093F2010E94710681
:1015F0008091F2018595859585950E94E80A089568
:101600000E94710608951092F20180E00E94E80A9B
:1016100008952091F201809582238093F201982F02
:101620009770911113C030E0482F082E000C550B15
:101630002417350759F09091660292FF07C08595EF
:10164000859585950E9481060E94030B08959091CF
:10165000660292FB222720F9281769F080FB92F995
:101660009093660280916502909166020E946F0BD2
:1016700082E00E94090B08958091660282FB882710
:1016800080F991E089270E94270B089581E00E944C
:10169000270B089580E00E94270B08956FEF7FEFDE
:1016A00080E090E00E941F1E089580E090E00E947C
:1016B000FB1D9C0181E0273E3E4F09F080E008952C
:1016C00082E090E00E94F31D089583E090E00E9484
:1016D000F31D089584E090E00E94FB1D0895BC0175
:1016E00084E090E00E941F1E0895AB01BC018FE0D2
:1016F00090E00E94131E0895AB01BC0183E190E0CD
:101700000E94131E089560E070E0CB010E947C0BE4
:10171000089560E070E0CB010E94750B0E94830B7E
:10172000089567EE7EEF80E090E00E941F1E60E06B
:1017300082E090E00E94011E60E083E090E00E9461
:10174000011E109299011092980160E074E184E00A
:1017500090E00E941F1E60E086E090E00E94011E63
:101760006FEF87E090E00E94011E40E050E0BA0178
:1017700088E090E00E94131E60E08DE090E00E94FF
:10178000011E40E050E0BA0188E190E00E94131E83
:1017900060E087E190E00E94011E40E050E0BA0165
:1017A0008CE190E00E94131E60E070E080E290E027
:1017B0000E941F1E40E050E0BA0188E190E00E94C4
:1017C000131E0E94890B08950E94910B0895682FA3
:1017D0008EE090E00E94011E08950E946B166093B7
:1017E0002202709323028093240290932502609337
:1017F0001E0270931F02809320029093210208958D
:10180000089508950E94010C089508950E94050C02
:10181000089580E99EE00E945C140E94000C0E94E2
:10182000020C089581E008950E94120C0895089515
:1018300008950E94170C0E94180C08950E94AF0E84
:101840000E94610208950E9456160E94770F0E941E
:101850001E0C0E94060C0895A5E0B0E0E2E3FCE057
:101860000C949A1D0E948D0F88E1C82E82E0D82E1C
:10187000760110E0F70101917F01812F0E94D50EC2
:101880001F5F163009F442C00817A1F380912602A9
:1018900081FD0E94DB0E0E94140CA82E00E0802F18
:1018A0000E94D50E182FF60191916F01891741F111
:1018B000B82EB926F12CEE24E3948E2D8B218823AB
:1018C000B9F0AA20A9F0F9820A8391E08E2D812334
:1018D000811101C090E09B830E945F168160782F88
:1018E0009D838C8349815A816B81892F0E948D024F
:1018F000F394EE0CF4E0FF12E0CFF6013197108381
:101900000F5F063061F60E94ED0B20C00813BECFBA
:101910000E945F168C0180911602909117020817A1
:101920001907A1F08FEF89838A831B820E945F16BB
:101930008160782F9D838C8349815A816B81892FA7
:101940000E948D0210931702009316020E94A911A3
:101950000E9474022596EAE00C94B61DCF93DF93A3
:101960000E94A90DEC01811522E59207C8F58115A9
:1019700040E5940708F0C3C0803E9105F0F48D3C2B
:10198000910508F094C0883A910578F4853A91055C
:1019900008F07FC08130910521F00497813A9105CC
:1019A00048F4CE01DF91CF910895885A9109499763
:1019B00008F472C0C0E0D0E0F4CF8115904468F420
:1019C000C11580E2D80708F0A7C0C83ED10548F38A
:1019D000CE019A958F3F9E41E3CFDF70D06AE1CF71
:1019E000803842E59407C8F5803652E5950708F03F
:1019F00067C0C03482E5D807B0F08C2F86958695F5
:101A0000877020E2829FC0011124C37021E030E082
:101A1000A90102C0440F551FCA95E2F7EA01C82B7D
:101A2000D92BDC68BECFC03252E5D50708F041C0E3
:101A30008C2F8695869520E2829FC0011124C37069
:101A400021E030E0A90102C0440F551FCA95E2F71A
:101A5000EA01C82BD92BDD68A4CF803C52E595075D
:101A600060F48F71C03AD24508F03FC090E0982FE3
:101A70008827EC01C46FD06A94CF805C9245809730
:101A800008F098CFDC2FCC27CC27DF71C06FD06A4D
:101A900088CFA497D06485CFC85AD0E0CC0FDD1F83
:101AA000CB5BDE4F0990D881C02DD4647ACFD0654E
:101AB00078CFCF71D0E0DC2FCC27C16FD06A71CF47
:101AC00086958695877020E2829FC0011124C3709D
:101AD00021E030E0A90102C0440F551FCA95E2F78A
:101AE000EA01C82BD92BDA685CCF0E944D0EC82FB3
:101AF000D0E0DC2FCC27CC27DF71D06252CF8F71A2
:101B00000E944D0E35E0D695C7953A95E1F7CF7016
:101B10009C2FEC01D06945CF8D2F8F710E944D0E07
:101B200090E0982F882788279F718C2BEC01E5CFB8
:101B3000462F672F763028F4443018F40E9479013C
:101B4000089580E090E008950E94980D0E94AE0CE8
:101B50000895803E9105D1F1C8F48133910509F4CF
:101B60007FC048F48932910509F46FC08A3291052B
:101B700009F47DC0089589339105E1F0823891051B
:101B8000C9F08533910509F45BC00895843E910541
:101B9000D1F148F4823E910531F1833E910541F146
:101BA00081EE90E00895863E9105C1F1873E910552
:101BB000E1F10895209165022370211165C0209103
:101BC000660223FF14C089E290E008952091650227
:101BD00020FD43C03091660230FF09C024FF4EC093
:101BE00080E090E008952091650222FDF7CF0895EE
:101BF0002091650222FD45C03091660230FD44C04F
:101C000024FFF5CFEDCF2091660221FFF0CF809128
:101C1000650284FDE5CF87EE90E00895209165028E
:101C200023FFE5CF24FDDCCFF6CF2091650223FD15
:101C30002EC03091660231FFE3CF84EE90E008952C
:101C40002091650225FFD3CFBECF2091650225FDEF
:101C500021C02091660223FFCACF89E390E0089556
:101C60002091650226FFC3CF8AE290E0089520917B
:101C7000650226FFBCCF81E390E0089583EE90E0FB
:101C8000089582EE90E0089580EE90E0089586EE4B
:101C900090E0089585E390E0AACF9091650292FFCD
:101CA00006C0282F28712830F9F4877F846093FFBD
:101CB00006C0282F28712831F1F4877E8461209195
:101CC000660220FF06C0382F38713830D9F4877F7C
:101CD000816021FF06C0282F28712831D1F4877E2A
:101CE000816194FD877E0895282F24712430F9F6B0
:101CF0008B7F8860DCCF282F2471243101F78B7E05
:101D00008861DDCF382F3171313019F78E7F8860CF
:101D1000E0CF282F2171213121F78E7E8861E1CF1C
:101D200080E008950E944E0B08950E948D0F2FEFC2
:101D300086E791E0215080409040E1F700C000002C
:101D40000E948D0F80E00E94D50E80FF04C00E948B
:101D5000920E0E94BB1608950E94950E08950E944F
:101D6000550B811102C00E94E40B0E94600B80930E
:101D700026020E946A0B90936602809365020E947D
:101D8000AC0E0E94650B90E00E9435068091960192
:101D9000909197010E945606089508950E94CD0ED5
:101DA000089508950E94D10E0895E82FF0E0E359B8
:101DB000FD4F80810895089580EA8A95F1F708958E
:101DC00000C008950E94DC0E0895F894E82FE29573
:101DD000EF70F0E041A18F7021E030E0B90102C066
:101DE000660F771F8A95E2F7CB01962F9095942383
:101DF00091A392A1892B82A378940895CF93DF9326
:101E0000CBE7D1E089918F3F11F00E94E50E81E090
:101E1000C138D807B9F781E90E94E50E80E90E9430
:101E2000E50E84E90E94E50E86E60E94E50EDF914C
:101E3000CF910895A0E0B0E0E0E2FFE00C949C1D9B
:101E4000EC01D62E062F10E0C80185589E4F7C016C
:101E5000FC0180818F3F09F445C0F894E82FE2959A
:101E6000EF70F0E091A18F7021E030E001C0220F0F
:101E70008A95EAF7892F822B81A382A120952823B6
:101E800022A378940E94E00EE7E7F1E091E0C12CF4
:101E900081918F3F81F0A82FA295AF70A05EB0E036
:101EA0002C9130E08F7002C0359527958A95E2F726
:101EB0002170892F211180E0C82A990F81E0EB372A
:101EC000F80731F7F70180818F3F11F00E94E50E8E
:101ED00061E0C11001C060E08D2D0E94E20EC00FD4
:101EE000D11FC882CDB7DEB7E8E00C94B81D0E94C0
:101EF000FE0E86E0EDE6F2E0DF01982F1D929A9546
:101F0000E9F7E7E6F2E0DF011D928A95E9F786E05E
:101F10000E94CB0F0E94CD010895A6E0B0E0E3E956
:101F2000FFE00C949F1D1A821982FE01339684E013
:101F3000DF011D928A95E9F7F12C8E010F5F1F4F8B
:101F40006F2DC8010E941A0FF394B6E0FB12F8CF70
:101F500046E050E0B80187E692E00E94DD1D21E0F6
:101F6000892B81F420E046E06DE672E087E692E09E
:101F70000E94CC0F182F0E94D001812F2696E5E0F9
:101F80000C94BB1D86E0F801A7E6B2E001900D922B
:101F90008A95E1F7E8CF0895A0E0B0E0E2EDFFE038
:101FA0000C949D1DD82EE92EF62E072FC42F222328
:101FB00049F081E0809329020E945F1690932802E5
:101FC0008093270210912902111107C010E0812F80
:101FD000CDB7DEB7E7E00C94B91D80912702909150
:101FE00028020E948816059788F3D0E0AE016D2D77
:101FF0007E2D8F2D902F0E94DD1D892B51F0AE017B
:102000006D2D7E2D8F2D902F0E94EA1D109229029A
:10201000DECF10E0FBCF0E9457180E94230C0E94D5
:10202000641808950E9469180E942C0C0E9483185D
:1020300008950E94F8150E943D180E94090C0E9404
:102040000B100E9412100E94190CFBCF80913002DD
:1020500080FF0DC06091070170E0660F771F603848
:102060007105C0F561157105B9F1862F089581FFDD
:1020700007C06091070184E0689FB0011124EFCF91
:1020800082FF04C06091070188E0F6CF80912F02A3
:102090008823E9F0909106016091070170E08917AB
:1020A00030F093E0660F771F9A95E1F7D8CF869FBF
:1020B0009001879F300D112483E0220F331F8A95F2
:1020C000E1F7692F70E0C9010E94781DC8CF68E070
:1020D00070E0CBCF8FE7089581E0089580913002C2
:1020E00080FF0CC06091030170E075956795759550
:1020F00067956115710561F1862F089581FF06C00E
:102100006091030170E075956795F3CF60910301CD
:1021100070E082FD15C020912E022223B1F0909133
:1021200002016091030170E0291750F4269FA0017D
:10213000279F500D1124692F70E0CA010E94781D5D
:1021400060387105B0F28FE7089561E070E0D4CF98
:1021500081E00895E3E3E80FE331E0F5F0E0ED5BC3
:10216000F14E0C948C1D0E942610819580933402B0
:1021700008950E942610FACF0E9426108195809320
:10218000330208950E942610FACF0E946E108093A9
:10219000350208950E946E108195F9CF0E946E104D
:1021A00081958093360208950E946E10FACF815D6A
:1021B000990B21E030E001C0220F8A95EAF7809167
:1021C0003202822B80933202089580913002816026
:1021D000809330020895809130028260F9CF80911F
:1021E00030028460F5CF409133028D3C59F48091E8
:1021F000340287FF0DC010923402442359F4109228
:102200002F0208C08E3C81F48091340218169CF392
:10221000442381F08091350290913602892B8111FF
:1022200059C010922E0208958F3C41F447FFF0CF21
:1022300010923302809134028823E0CF803D19F45C
:102240001416B4F3E5CF90913502893D29F419169F
:10225000FCF610923502DCCF8A3D19F497FFD8CFF7
:10226000F8CF909136028B3D29F497FFD1CF109291
:102270003602CECF8C3D19F41916CCF3C9CF9FE2AC
:10228000980F983090F4815D990B21E030E0B9010E
:1022900002C0660F771F8A95E2F7CB018095909177
:1022A0003202892380933202B3CF8D3D31F4809185
:1022B00030028E7F80933002ABCF8E3D21F480912F
:1022C00030028D7FF7CF8F3D09F0A2CF8091300291
:1022D0008B7FF0CF08950E945F16209133023091DA
:1022E0003402232B222321F080932C0290932D0281
:1022F0002091350230913602232B222321F0809346
:102300002A0290932B0281E392E00E948E1408959A
:1023100086E0E1E3F2E0DF011D928A95E9F7109291
:102320002F0210922E02109230020895FC01828139
:1023300081110DC0838181110AC08481811107C080
:1023400081E09581911101C080E08170089581E064
:10235000FCCFA6E0B0E0EFEAF1E10C949F1D86E02F
:10236000E1E3F2E09E012F5F3F4FD90101900D9212
:102370008A95E1F7109233021092340210923502DE
:10238000109236028B819C81892B8901882391F0E0
:1023900080912C0290912D020E9488169C018091C0
:1023A0002F028823C9F14091080150E042175307DA
:1023B00008F43FC08D819E81892B882399F08091FC
:1023C0002A0290912B020E9488169C0180912E0275
:1023D000882309F46DC04091040150E0421753076F
:1023E00008F474C0B80181E392E00E94B415811131
:1023F00005C081E392E00E94961181110E946B1149
:1024000086E0F801A1E3B2E001900D928A95E1F730
:102410002696E5E00C94BB1D409109019AE0499F86
:10242000A00111244217530728F68F5F80932F02D3
:1024300002C08F3FD1F7FB80FF2059F00E94261089
:1024400091E01F140CF09FEF899F802D1124809341
:102450003302FC80FF2059F00E94261091E01F14E7
:102460000CF09FEF899F802D1124809334023091CE
:102470003302332309F49ECF20913402222309F43E
:1024800099CF45EB3403C0011124892F911101C06C
:1024900081E08093330245EB240390011124332320
:1024A00019F03093340286CF81E08093340282CFDA
:1024B000409105019AE0499FA0011124421753075A
:1024C00008F090CF8F5F80932E0202C08F3FD1F72C
:1024D000FD80FF2059F00E946E1091E01F140CF057
:1024E0009FEF899F802D112480933502FE80FF206D
:1024F00059F00E946E1091E01F140CF09FEF899F1D
:10250000802D11248093360230913502332309F453
:1025100069CF20913602222309F464CF45EB3403BE
:10252000C0011124892F911101C081E080933502EF
:1025300045EB240390011124332319F03093360224
:1025400051CF81E0809336024DCFCF93DF93EC01E2
:10255000FB018281882309F4D2C09E0130572332C7
:10256000310508F0B2C00E946A0B90936602809316
:102570006502FE01E150F047E232F10520F4EA5A2B
:10258000F14E0C948C1D80916502816080936502F0
:1025900093C0809166028860809366028DC08091AE
:1025A00065028260F3CF809165028460EFCF8091F5
:1025B00065028860EBCF809166028160EDCF8091EB
:1025C00066028260E9CF809165028061DFCF8091F1
:1025D00065028062DBCF809165028064D7CF0E9464
:1025E000E005809165028068D1CF809165028C60A2
:1025F000CDCF809166028360CFCF809165028E7FC0
:10260000C5CF80916602877FC7CF809165028D7F9D
:10261000BDCF809165028B7FB9CF80916502877FA6
:10262000B5CF809166028E7FB7CF809166028D7F95
:10263000B3CF809165028F7EA9CF809165028F7D97
:10264000A5CF809165028F7BA1CF0E94E00580918C
:1026500065028F779BCF80916502837F97CF8091B2
:1026600066028C7F99CF8091650282FB992790F951
:1026700021E0922790FB82F990FB83F987CF80912C
:102680006602982F909591708E7F892B90FB81F92F
:1026900083CF90916502892F8F7B96FF806476CFE0
:1026A0000E94E00590916502892F97FB87F9805879
:1026B0006DCF81E00E94E70B8091650290916602E8
:1026C0000E946F0B0E94E00580E0DF91CF9108959A
:1026D00080E0F0CF90916502892F8F7E94FF80611A
:1026E00055CF90916502892F8E7F90FF81604ECFEC
:1026F00090916602892F877F93FF88604DCF81E09C
:10270000E4CFCF93DF93EB0186319C4719F50E940C
:10271000630A9A819923A1F08A7A91E0811101C01C
:1027200090E090933702882349F085E30E943A0AAB
:102730000E94A60A80E0DF91CF91089589E2F6CF4A
:1027400080913702882321F085E30E94420AF0CF6E
:1027500089E2FBCF81E0EFCF0F931F93CF93DF93FD
:10276000C42FD22FFC0182818823C9F040933A0202
:102770000E945F16909339028093380280E28C0F9A
:10278000883040F4C77081E001C0880FCA95EAF72D
:102790000E947203DF91CF911F910F9108951091C4
:1027A0003A0214133CC080913802909139020E9481
:1027B0008816883C910598F5C0E2CD0F1D1741F1B0
:1027C00080E2810F883040F4177081E001C0880FEB
:1027D0001A95EAF70E947903C83020F0802F0E94F2
:1027E0006903D8CF91E08D2F877001C0990F8A952A
:1027F000EAF7892F0E947203802F0E946903D77025
:1028000081E001C0880FDA95EAF70E947903C2CF10
:10281000802F0E946903C83008F0BCCFF0CF80E25F
:102820008C0F883008F0B6CFC77081E001C0880FE8
:10283000CA95EAF7EACF0F93FC01CB01E851FC47B8
:10284000E730F10590F5E858F14E0C948C1D06E246
:1028500021EE41EE6AE17CE70E94AC1380E00F912B
:10286000089507E225EE45EE6BE17CE7F5CF06E241
:1028700021EE40EE68E17CE7EFCF07E225EE44EE83
:1028800069E17CE7E9CF06E221EE42EE6CE17CE70C
:10289000E3CF07E225EE46EE6DE17CE7DDCF08E20F
:1028A00021E045EE6EE17CE7D7CFFB01828181110B
:1028B00010923A0281E0D3CF9093830180938201FA
:1028C00008959093400280933F020895E0913F0263
:1028D000F0914002309729F00190F081E02D0995A8
:1028E000089580E00895DC01E0913F02F0914002FC
:1028F000309799F080911201882351F08091650200
:1029000087FF06C08C9111968C93119786E08C936B
:102910000280F381E02DCD0109950895DC01E0915D
:102920003F02F0914002309739F082E08C930480AE
:10293000F581E02DCD0109950895A3E0B0E0E3EA2B
:10294000F4E10C94A21D9C0180913D0290913E0205
:1029500082179307A1F030933E0220933D02E0914D
:102960003F02F0914002309751F083E089833B832E
:102970002A830680F781E02DCE01019609952396E2
:10298000E2E00C94BE1DA3E0B0E0E9ECF4E10C94AD
:10299000A21D9C0180913B0290913C0282179307FB
:1029A000A1F030933C0220933B02E0913F02F09172
:1029B0004002309751F084E089833B832A8306806C
:1029C000F781E02DCE01019609952396E2E00C9463
:1029D000BE1D9C012E5F3F4F80911201882321F084
:1029E000809165029DE187FF95E080E0F9014081DB
:1029F0002F5F3F4F41118F5F9150C0F708959C01A9
:102A0000662301F1809112018823F1F08091650223
:102A100087FF1AC0462F469546954695603F90F42D
:102A2000677081E090E002C0880F991F6A95E2F715
:102A3000240F311DF901228130E02823392381E060
:102A4000232B71F480E00895F9013296285F3F4FFF
:102A50008191861721F0E217F307D1F7F3CF81E0D8
:102A600008959C01FC0132968FEF90E0419146174A
:102A700051F08F3F19F4411101C0892F9F5F9630AB
:102A8000A9F78F3F09F40895280F311D87FD3A9566
:102A9000F901628308959C01FC013296285F3F4F43
:102AA0008191861303C0DF0111971C92E217F3078F
:102AB000B9F70895FC01862F869586958695603F27
:102AC00060F4E80FF11D677021E030E001C0220FD3
:102AD0006A95EAF78281822B82830895FC01862F12
:102AE000869586958695603F80F4E80FF11D6770A6
:102AF00081E090E09C0102C0220F331F6A95E2F74B
:102B0000B901609582816823628308952091120142
:102B1000222339F02091650227FF03C00E945A1535
:102B200008950E943115089520911201222339F051
:102B30002091650227FF03C00E946E1508950E9430
:102B40004B150895FC01329680911201882351F0B3
:102B50008091650287FF06C08EE1DF011D928A9594
:102B6000E9F7089586E0F9CF46E050E00E94DD1DC8
:102B70009C0181E0232B09F480E0089508950E94D0
:102B8000BE1508958F5F809341020E94BF1508957E
:102B900083E0809341020E94BF1508950E94C215F0
:102BA000089581E0809341020E94BF1508950E941C
:102BB000D1150895089508950E94DB15089508958C
:102BC00008950E94DA150895CF930E94DF150E94A0
:102BD0008D0F0E94E015C0E08C2F0E94D50E811150
:102BE00005C0CF5FC630C1F7CF91089581E0FCCF1B
:102BF00085B7806885BF85B7806885BF08951F92B7
:102C00001FB61F9211248F939F93AF93BF93809110
:102C10004202811113C08091730290917402A091BD
:102C20007502B09176024196A11DB11D8093730289
:102C300090937402A0937502B0937602BF91AF9106
:102C40009F918F911F901FBE1F90189580917B02BE
:102C5000843031F10E9441021092420288E190E0FA
:102C600020E40FB6F894A895809360000FBE2093DF
:102C7000600083B7817F846083BF83B7816083BF37
:102C80007894889583B78E7F83BF0FB6F894A89504
:102C900080916000886180936000109260000FBE98
:102CA00008950E94E0050E944602089582E084BDD6
:102CB00093E095BD9AEF97BD80936E0008952FB76E
:102CC000F8948091730290917402A0917502B09172
:102CD00076022FBF0895A4E0B0E0E1E7F6E10C949E
:102CE000A21D8FB7F8942091730230917402409125
:102CF00075025091760229833A834B835C838FBFA0
:102D000069817A818B819C812496E2E00C94BE1DBE
:102D10009C014FB7F8948091730290917402A09136
:102D20007502B09176024FBF821B930B0895789481
:102D30001F921FB61F9211248F939F93AF93BF933F
:102D40008091730290917402A0917502B091760205
:102D50000196A11DB11D8093730290937402A093FC
:102D60007502B0937602BF91AF919F918F911F90A2
:102D70001FBE1F90189581E08093E00080E2809351
:102D8000D8001092C9008FE19EE40197F1F700C0CE
:102D9000000087E090EBDC01809384029093850231
:102DA000A0938602B093870288E19CE00FB6F89466
:102DB000A895809360000FBE90936000FFCF88E1DC
:102DC0009CE00FB6F894A895809360000FBE909396
:102DD0006000FFCF809163020895282FCB01BA01D4
:102DE00030917B023430E1F42F702093E9002FEF13
:102DF0003091E80035FD07C035ED3A95F1F7000058
:102E000021502111F5CF2091E80025FF09C040E0B5
:102E100050E00E94F6188091E8008E778093E800D9
:102E20000895BC0143E050E082E00E94ED16089551
:102E3000BC0146E050E082E00E94ED160895CF9379
:102E4000DF93D82FC92F80911201811113C048E060
:102E500050E06D2F792F81E00E94ED1680E2ED2F7A
:102E6000FC2FA3E4B2E001900D928A95E1F7DF9187
:102E7000CF9108958091650287FD06C048E081E00A
:102E800050E06D2F7C2FE8CF40E282E0F9CF8091B7
:102E90007A02811109C00E947E1A0E94DB1A809179
:102EA000E20084608093E200089510927A0208950F
:102EB0000E94D11508956091770281E0611101C0EF
:102EC00080E00E94C815089590917B0281E09430C3
:102ED00009F080E0609177020E94CE15089542E0EB
:102EE00061EC81E00E94FA1942E261EC82E00E940A
:102EF000FA1990917B0281E0943009F080E06091B2
:102F000077020E94C215089580917D02893089F16F
:102F100048F4823009F4A0C0833009F45AC08130EB
:102F200041F008958A3009F487C08B3009F46CC0F1
:102F3000089580917C02813A09F04AC08091E800AE
:102F4000877F8093E8008091800290918102892B95
:102F500061F060E080E090E070E00E9445198091AF
:102F6000E8008B778093E800089560E283E492E0C4
:102F7000F3CF80917C02813259F58091800290914B
:102F80008102029728F58091E800877F8093E8000E
:102F90008091E80082FF18C09091F3008091F200C8
:102FA000029731F48091F100813011F0863021F4E4
:102FB0008091F100809363028091E8008B77809389
:102FC000E8000E942E1A04C080917B028111E0CF9C
:102FD000089580917C02813AD9F780918002909186
:102FE0008102892BA9F78091E800877F8093E80010
:102FF0008091E80080FFFCCF809112018093F10066
:103000008091E8008E77DBCF80917C02813201F7DE
:103010008091800290918102892BD1F68091E80005
:10302000877F8093E8000E942E1A80917E02809311
:1030300012010E94E005089580917C02813241F6E0
:103040008091E800877F8093E8000E942E1A80918B
:103050007F0280936402089580917C02813A09F096
:10306000B7CF8091E800877F8093E8008091E800E7
:1030700080FFFCCF80916402C1CF84B7877F84BF7B
:103080000FB6F894A89580916000886180936000E5
:10309000109260000FBE80E890E00FB6F894809325
:1030A0006100909361000FBE0E94D71508950E94A1
:1030B0007E1A0E94DB1AE2EEF0E080818460808359
:1030C00078940E945E1D08958AE091E00E94611448
:1030D000089580917B02853031F480917B028530A8
:1030E00019F00E94511608950E94261680917902C7
:1030F000882399F30E94E415882379F30E94E0184D
:103100000E94E005EACF08950E9487180895FC0107
:10311000CB01DA012F2F332723303105E1F058F4AA
:1031200021303105C9F122303105D9F180E090E03C
:1031300020E030E01EC02132310521F1223231057C
:10314000A9F7892BC1F16130710581F786EB90E019
:103150002BE531E00EC0CF019927E13069F08230D4
:10316000910569F0EAE0F1E0892B01F7849190E0A4
:103170009F012D933C930895ECEEF0E0F7CFECED3A
:10318000F0E0F4CF892B91F06130710579F689E098
:1031900090E029E331E0EDCF82E190E029E431E0F5
:1031A000E8CF8BE390E02EE031E0E3CF89E090E0E0
:1031B00020E231E0DECF80E490E021E132E0D9CFBF
:1031C00080E189BD82E189BD09B400FEFDCF809117
:1031D000D8008F7D8093D8008091E000826080933A
:1031E000E0008091E00081FDFCCF0895AF92BF9296
:1031F000CF92DF92FF920F931F93CF93DF936C01D7
:10320000EB018A010E944D1AF82E811123C001158D
:10321000110539F0F80180819181C81BD90BC80EC6
:10322000D91EA12CB12C2097A9F08091E80085FD32
:1032300022C08091E8008E778093E8000115110587
:10324000A1F0F801808191818A0D9B1D918380837B
:1032500085E0F82E8F2DDF91CF911F910F91FF9078
:10326000DF90CF90BF90AF9008950E944D1A8823B1
:10327000E1F2F82EEFCFF60181916F018093F1001A
:103280002197FFEFAF1ABF0ACECFFC019B018091BF
:103290008202909183028617970718F0672B61F0DE
:1032A000C90140E0009771F441110CC08091E80021
:1032B00082FF35C080E008958091E8008E7780938A
:1032C000E800EECF20917B022223A9F12530A9F15D
:1032D0002091E80023FD2DC02091E80022FDE6CFDB
:1032E0002091E80020FFDECF3091F3002091F20022
:1032F000009719F02830310558F041E028303105A9
:1033000009F040E02091E8002E772093E800CACF32
:1033100041914093F10001972F5F3F4FE9CF80919A
:103320007B02882341F0853041F08091E80083FFE3
:10333000BDCF81E0089582E0089583E00895FC0107
:103340009B0180918202909183028617970718F063
:10335000672B61F0C90140E0009771F441110CC086
:103360008091E80082FF36C080E008958091E800F7
:103370008E778093E800EECF20917B022223B1F17B
:103380002530B1F12091E80023FD2EC02091E80006
:1033900022FDE6CF2091E80020FFDECF3091F30040
:1033A0002091F200009719F02830310558F041E0E3
:1033B0002830310509F040E02091E8002E77209375
:1033C000E800CACF44914093F100319601972F5FF6
:1033D0003F4FE8CF80917B02882341F0853041F058
:1033E0008091E80083FFBCCF81E0089582E00895DA
:1033F00083E00895982F973028F08F708093E9002C
:1034000081E008959093E900242F762F50E09817DB
:1034100031F07091EC002091ED005091F00021FD11
:1034200002C09F5FE8CF3091EB003E7F3093EB000E
:103430003091ED003D7F3093ED003091EB00316035
:103440003093EB007093EC002093ED005093F0006C
:103450002091EE0027FDE5CF80E0089580917C0269
:1034600087FF13C08091E80082FF06C08091E800CA
:103470008B778093E80004C080917B028111F2CFAA
:10348000089580917B028823D9F38091E80080FF22
:10349000F8CF8091E8008E77ECCF2091E400309156
:1034A000E50095E6A9018091EC008170882331F058
:1034B0008091E80080FF06C080E008952091E80038
:1034C00022FD1BC080917B02882391F0853091F012
:1034D0008091EB0085FD10C02091E4003091E50063
:1034E0004217530701F391509111DCCF84E0089506
:1034F00082E0089583E0089581E008950E94ED1A26
:103500000E94F51AE0EEF0E0808181608083E8EDB2
:10351000F0E080818F77808319BCA7EDB0E08C91BB
:103520008E7F8C9380818F7E808310927A020895A3
:103530000F931F93CF93DF930E94ED1A0E94F51A09
:10354000C8EDD0E088818F77888388818068888300
:1035500088818F7D888319BC10927B02109277023C
:10356000109279021092780200EE10E0F80180814A
:103570008B7F808388818160888342E060E080E087
:103580000E94FA19E1EEF0E080818E7F8083E2EE06
:10359000F0E0808181608083808188608083F80191
:1035A00080818E7F8083888180618883DF91CF9145
:1035B0001F910F910895E8EDF0E080818F7E808368
:1035C000E7EDF0E080818160808384E082BF81E06C
:1035D00080937A020E94981A0895E8EDF0E08081C5
:1035E0008E7F80831092E20008951092DA0010928C
:1035F000E10008951F920F920FB60F9211242F939E
:103600003F934F935F936F937F938F939F93AF936A
:10361000BF93EF93FF938091E10082FF0BC08091F5
:10362000E20082FF07C08091E1008B7F8093E10080
:103630000E945D1D8091DA0080FF19C08091D80042
:1036400080FF15C08091DA008E7F8093DA00809130
:10365000D90080FF94C080E189BD82E189BD09B4B1
:1036600000FEFDCF81E080937B020E94471780918E
:10367000E10080FF19C08091E20080FF15C08091B9
:10368000E2008E7F8093E2008091E200806180936F
:10369000E2008091D80080628093D80019BC85E058
:1036A00080937B020E945B178091E10084FF29C018
:1036B0008091E20084FF25C080E189BD82E189BD5F
:1036C00009B400FEFDCF8091D8008F7D8093D80093
:1036D0008091E1008F7E8093E1008091E2008F7EF7
:1036E0008093E2008091E20081608093E20080910B
:1036F0007702882309F449C084E080937B020E940A
:1037000064178091E10083FF29C08091E20083FF6C
:1037100025C08091E100877F8093E10082E0809363
:103720007B02109277028091E1008E7F8093E1000E
:103730008091E2008E7F8093E2008091E2008061C0
:103740008093E20042E060E080E00E94FA198091FC
:10375000F00088608093F0000E945817FF91EF916D
:10376000BF91AF919F918F917F916F915F914F9199
:103770003F912F910F900FBE0F901F90189519BC7D
:1037800010927B020E94551772CF8091E30087FF51
:1037900002C083E0B2CF81E0B0CF1F920F920FB68C
:1037A0000F921124FF920F931F932F933F934F93E8
:1037B0005F936F937F938F939F93AF93BF93CF93B9
:1037C000DF93EF93FF9309EE10E0F8018081C09141
:1037D000EC00C795CC27C7958F70FC2EF82A108275
:1037E000C0EFD0E08881877F888378940E94161C80
:1037F000F8011082888188608883CF2DCF70C083C4
:10380000FF91EF91DF91CF91BF91AF919F918F91F8
:103810007F916F915F914F913F912F911F910F91E8
:10382000FF900F900FBE0F901F901895AAE2B0E086
:10383000ECE1FCE10C94A11D8CE792E0FC01019607
:103840002091F100208322E084389207B9F70E948A
:1038500084178091E80083FF38C080917C029091AA
:103860007D029A3090F5E92FF0E0E158F14E0C948A
:103870008C1D803889F0823841F5809180028F70EC
:10388000873018F58093E9008091EB0085FB88274D
:1038900080F91092E90006C0809178029091790237
:1038A000911182609091E800977F9093E800809357
:1038B000F1001092F1008091E8008E7723C0811111
:1038C00016C080917E02813011F18091E80083FF63
:1038D0000AC08091E800877F8093E8008091EB0028
:1038E00080628093EB00AA96E3E00C94BD1D8230C9
:1038F00061F780917E02882389F01092E90080911F
:10390000E800877F8093E8000E942E1ADECF81E0D6
:10391000933009F080E080937902EFCF80918002AC
:103920008F702FEF280F263080F68093E9002091CA
:10393000EB0020FFE2CF933031F48091EB00806206
:103940008093EB00DACF9091EB0090619093EB00C5
:1039500021E030E0A90102C0440F551F8A95E2F72B
:103960004093EA001092EA008091EB008860E8CF73
:103970008111ABCF10917E021F778091E300807898
:10398000812B8093E3008091E800877F8093E8009B
:103990000E942E1A8091E80080FFFCCF8091E30006
:1039A00080688093E30083E0111101C082E080937E
:1039B0007B028BCF8058823008F087CF80917E02C7
:1039C00090917F028C3D53E0950799F583E08A83BF
:1039D0008AE289834FB7F894DE01139620E03EE037
:1039E00051E2E32FF0E050935700849120FF03C091
:1039F00082958F703F5F8F708A30C8F0895C90E04D
:103A00008D939D932F5F243161F74FBF8091E80024
:103A1000877F8093E8006AE270E0CE0101960E9401
:103A200045198091E8008B778093E8004ECF805D48
:103A3000E6CF6091800270918102AE014F5F5F4FCF
:103A40000E948418BC01892B09F43FCF8091E800C3
:103A5000877F8093E80089819A810E949F19E1CF36
:103A6000803809F032CF8091E800877F8093E800AA
:103A7000809177028093F1001ECF811126CF909123
:103A80007E02923008F021CF8091E800877F8093FA
:103A9000E800909377020E942E1A80917702882383
:103AA00031F084E080937B020E946F170ECF8091EB
:103AB000E30087FDF6CF81E0F5CF0895CF938091A5
:103AC0007B02882399F08091E900C091EC00C795B2
:103AD000CC27C7958F70C82B1092E9008091E80021
:103AE00083FD0E94161CCF70C093E900CF9108950A
:103AF00097FB072E16F4009407D077FD09D00E949B
:103B0000C91D07FC05D03EF4909581959F4F0895FF
:103B1000709561957F4F0895EE0FFF1F0590F4910A
:103B2000E02D09942F923F924F925F926F927F9275
:103B30008F929F92AF92BF92CF92DF92EF92FF92BD
:103B40000F931F93CF93DF93CDB7DEB7CA1BDB0B69
:103B50000FB6F894DEBF0FBECDBF09942A8839880E
:103B600048885F846E847D848C849B84AA84B98415
:103B7000C884DF80EE80FD800C811B81AA81B98121
:103B8000CE0FD11D0FB6F894DEBF0FBECDBFED0135
:103B90000895AA1BBB1B51E107C0AA1FBB1FA61794
:103BA000B70710F0A61BB70B881F991F5A95A9F7E6
:103BB00080959095BC01CD010895FB01DC0104C006
:103BC0008D910190801921F441505040C8F7881B15
:103BD000990B0895FB01DC0102C001900D92415048
:103BE0005040D8F70895F999FECF92BD81BDF89A5B
:103BF000992780B50895A8E1B0E042E050E00C9428
:103C0000271E262FF999FECF92BD81BDF89A019704
:103C100000B4021639F01FBA20BD0FB6F894FA9A14
:103C2000F99A0FBE08950396272F0E94021E0E9444
:103C3000011E252F0E94021E242F0C94021E0196A5
:103C4000272F0E94021E0C94011EDC01CB01FC01F7
:103C5000F999FECF06C0F2BDE1BDF89A319600B4E5
:103C60000D9241505040B8F70895F894FFCFB70334
:103C7000B703E703E7036F048C04120412049104F2
:103C80000B051C051C05B310B910BC10C210D710D1
:103C9000D710D710D710D710D710D710D710C510FE
:103CA000CA10CE10D410E510EB10EF10FD127113F6
:103CB0000513CF12D3120913D7120D131913E312E0
:103CC0006A13E7121D13EB1221134913EF12251388
:103CD0005013F5122B133313DB121113DF121513CC
:103CE000F9122F133F1359136813C91201137813D4
:103CF00037143D1427143114431449144F14391C3C
:103D00005F1C651C5F1C651CB81CDA1C651C301D23
:023D10003D1D57
:103D1200F401280850011E0A1401EA161F17181789
:103D2200111701E200E900EA00B500B600B700CDC4
:103D3200008301CC008A0192019401210223022412
:103D4200022502260227022A02B300B4006F007085
:103D5200009F01CB01E200E900EA00B500B600B71E
:103D620000CD008301CC008A01920194012102233B
:103D72000224022502260227022A02B300B4006F9F
:103D82000070009F01CB019190946697C63435363E
:023D92003200FD
:00000001FF
