:100000000C941D010C943A010C943A010C943A01A1
:100010000C943A010C943A010C943A010C943A0174
:100020000C943A010C943A010C94C41A0C94971B4A
:100030000C94DC150C943A010C943A010C943A019E
:100040000C943A010C943A010C943A010C943A0144
:100050000C943A010C9474160C943A010C943A01E5
:100060000C943A010C943A010C943A010C943A0124
:100070000C943A010C943A010C943A010C943A0114
:100080000C943A010C943A010C943A010C943A0104
:100090000C943A010C943A010C943A010C943A01F4
:1000A0000C943A010C943A010C943A012400250076
:1000B00026002100220023001E001F002000140340
:1000C000630061006C0063007400650073007400DD
:1000D000390000001C034F00720069006F006E00C1
:1000E000200041006E00640072006500770073001C
:1000F00000000403090409023B00020100A0FA0900
:100100000400000103010100092111010001224046
:100110000007058103080001090401000103000034
:100120000009211101000122B60007058203200009
:10013000011201000200000008EDFE0000000101B4
:1001400002000105010902A10185020901A10005C2
:100150000919012908150025019508750181020575
:1001600001093009311581257F950275088106093D
:10017000381581257F950175088106050C0A38021E
:100180001581257F950175088106C0C0050109808C
:10019000A101850319012AB700150126B7009501B1
:1001A00075108100C0050C0901A101850419012AFF
:1001B000A002150126A002950175108100C005015D
:1001C0000906A1018506050719E029E715002501A3
:1001D0009508750181020507190029EF1500250111
:1001E00095F075018102050819012905950575012C
:1001F0009102950175039101C005010906A1010550
:100200000719E029E7150025019508750181029578
:1002100001750881010507190029FF150026FF0057
:1002200095067508810005081901290595057501D0
:100230009102950175039101C00011241FBECFEFFB
:10024000DAE0DEBFCDBF11E0A0E0B1E0E6EAFCE31A
:1002500002C005900D92AE37B107D9F722E0AEE7A4
:10026000B1E001C01D92A337B207E1F70E94F60F7B
:100270000C94FF1D0C940000811113C0633088F4AE
:10028000433078F470E0FB01EE0FFF1FE60FF71F1D
:10029000E40FF11DEE0FFF1FE455FF4F8591949180
:1002A000089580E090E008950E943C01089581E067
:1002B000089581E008950E945901089508950E94CB
:1002C0005E010895A5E0B0E0E8E6F1E00C946B1D56
:1002D00049835A833091850189819A81311119C0EE
:1002E000662399F0222389F00E941807182F682F9F
:1002F00089819A810E94EF0669817A81812F0E940B
:100300007E0D2596E3E00C94871D0E940307182FAD
:10031000F3CF0E94180769817A81F1CFFC01262F63
:10032000408151816281738184810E9462010895BC
:1003300081E00895CF93DF93D82FC92F60E00E940A
:100340008E016D2F7C2F0E945F01DF91CF91089568
:100350000E94B40E08950E94B80E089508950E9458
:10036000BB050E94AE012FEF84E39CE0215080404A
:100370009040E1F700C0000008950E94AF010E9484
:10038000981608950E94AF010E94A91608950F9330
:100390001F93CF93DF938C0161E00E948E01EC01EB
:1003A000B8010E945B018823B1F1B801CE010E941F
:1003B000F813882381F1B801CE010E9482128823AC
:1003C00051F1B801CE010E945E13882321F1F8019A
:1003D0008281882381F0CA35FCE7DF0739F178F4A0
:1003E000C130ECE7DE07F9F0C330FCE7DF07C9F006
:1003F000C115DC4771F0C8010E9457010DC0CB3513
:10040000ECE7DE07B1F0CC35DC47A9F70E941D0B05
:10041000F2CF0E94BD0180E0DF91CF911F910F913B
:1004200008950E942F0B0E94C201F5CF0E94270B56
:10043000E2CF0E942B0BDFCF0E94B9150E9446022B
:1004400008950E944A020E94BE15089508950E94D0
:100450002602089581E008950895CF93DF93D82F61
:100460000E942A02C82F882319F08D2F0E942C0287
:100470008C2FDF91CF9108950895CF93C82F0E94BC
:1004800027028C2F0E942D02CF91089580E00E94B8
:100490003D0208950E9443140E943D020895CF93A7
:1004A0000E944314C82F809180018C1779F0C0936B
:1004B00080010E94481660938101709382018093AD
:1004C0008301909384018C2F0E943D02CF91089567
:1004D000ABE0B0E0EEE6F2E00C94681D142F4F8321
:1004E000052F588769877A878B87EA84FB84611197
:1004F0000E94660A1E8285E0FE013796DE01119693
:1005000001900D928A95E1F7E114F10461F44981BB
:100510005A816B817C818D819E810E948C092B96F2
:10052000E6E00C94841D10231F3F89F3CE01019651
:100530000E9498018111EBCFF2CFFC018081918163
:100540000E944A070895662329F00E9487100E949E
:10055000481108950E94D010FACFCF93C82F882356
:10056000B9F08CEF8C0F813AA8F46C2F80910001C8
:10057000909101010E94DC14882329F08C2F0E94A5
:10058000230A0E94870A8C2F0E941B0A0E94870A56
:10059000CF91089580E28C0F883048F4C77081E0D5
:1005A00001C0880FCA95EAF70E94470AEFCF8BE592
:1005B0008C0F833038F42C2F2452330BC9010E9446
:1005C0007A14E6CFE8E5EC0FE93150F4F0E0EE0FF5
:1005D000FF1FED5EFE4F808191810E94A014D8CF55
:1005E00083E38C0F8331A0F661E08C2F0E94A3027D
:1005F000CFCF882381F19CEF980F913A28F40E9485
:10060000230A0E94870A089590E2980F983050F4C8
:10061000877091E001C0990F8A95EAF7892F0E94AF
:100620004D0AEFCF9BE5980F933028F480E090E0DF
:100630000E947A14089598E5980F993128F480E083
:1006400090E00E94A014089593E3980F933118F45A
:1006500060E00E94A30208951F93CF93DF93182FA9
:10066000EB010E94AD02209739F4812F0E94F9021C
:10067000DF91CF911F9108958FE99FE00197F1F7E6
:1006800000C000002197EFCF60E070E0893311F4E3
:1006900060E570E00E942C030895882321F00E94F9
:1006A000470A0E94870A0895882321F00E944D0A74
:1006B0000E94870A0895A0E0B0E0E1E6F3E00C9420
:1006C000661D6C01D62FC72FFC0112810581029592
:1006D0000F700E943C0AE82E8823B9F0E12E112306
:1006E000A1F08C2F807F803421F080E28D0F883044
:1006F000B8F080915B0282FF13C082E00E94EA0A98
:100700000E943C0A91E0E82EE926EC2FE295EF707A
:10071000C03C08F062C0F0E0EF5FF14E0C94561D53
:10072000E12CF3CF0C2F0F70C03110F00295007F39
:10073000112399F0002359F080E28D0F883010F0DA
:10074000D11107C0802F0E94470A0E94870A8D2F6F
:1007500042C0802F0E94580AF8CF8D2F0E94F902C4
:100760000023D9F180E28D0F883010F0D11104C040
:10077000802F0E944D0A03C0802F0E945E0A0E94B3
:10078000870A2BC0FC2FFF70FF2EC07FC03219F0EC
:10079000F29480EFF822DD2381F0D13009F45EC0BD
:1007A000112309F466C0002309F45DC0F6018581B8
:1007B00080FFCDCF8F70858356C080915B0282FD14
:1007C0002BC0112311F1FF2029F08F2D0E94470A21
:1007D0000E94870A80E00E94AD02EE2089F00E940C
:1007E000380A80FD0DC0F60112820E94320A0E9472
:1007F0004C06C6010E947C050E94320A0E945C06DB
:10080000CDB7DEB7E8E00C94821D80E00E94F902CB
:10081000FF2019F38F2DADCF112381F0011106C0F8
:100820000E94690A8F290E944D03D7CF0130C1F77A
:100830000E94690A8F290E94700ACFCF011106C059
:100840000E947D0A8F2D0E945403C7CF013029F2E8
:100850008F2D0E9454030E947D0ABFCF112329F0DF
:10086000063008F0BACF8F2DDECF053008F0B5CFB7
:10087000E9CF002339F3D93349F4FFEF27EE63E0E2
:10088000F15020406040E1F700C000008D2F0E9431
:10089000F902A3CF8C2F869586958370882369F003
:1008A000813009F09ACF8D2F9C2F9370111102C0C7
:1008B00080E090E00E94A01490CF8D2F9C2F937029
:1008C000111102C080E090E00E947A1486CF612F5F
:1008D0008D2F0E94A30281CF8C2F8370811139C08C
:1008E000111129C04D2F429546954770440F440F72
:1008F0002D2F2F7030E0042E02C0220F331F0A94D8
:10090000E2F780E090E0D4FF09C08FE090E002C001
:10091000880F991F4A95E2F780959095C695C695E0
:10092000C370822B932BC23071F0C33079F0C13089
:1009300039F00E941C060E9443140E943D024DCFD4
:100940000E941306F8CF0E942506F5CF0E941006DC
:10095000F2CF112361F1C0FFEECF8D2F82958695E6
:100960008770880F880F4D2F4F7050E0082E02C0FF
:10097000440F551F0A94E2F7D4FF1CC02FE030E06B
:10098000F90102C0EE0FFF1F8A95E2F7CF018095B3
:100990009095C695C695C370842B952BC23081F077
:1009A000C33089F0C13049F00E948706C4CF82303D
:1009B00010F2D3CF80E090E0ECCF0E947E06BBCF58
:1009C0000E949006B8CF0E943406B5CFCF70112395
:1009D00039F08C2F0E944C068D2F0E944D03ABCF17
:1009E0008D2F0E9454038C2F0E945C06A4CFD23F0F
:1009F00031F170F4D03FB9F0D13FB1F1112309F4D6
:100A000051C0002309F44BC08D2F0E94AD0293CF3B
:100A1000D33FE1F0D43F21F11111F3CF011150C0C8
:100A20008C2F8F71E1CF112341F0053008F083CF77
:100A30008C2F8F710E946E067ECF0530F7CF8C2FE2
:100A40008F711111D1CF0E944C0675CF112329F05F
:100A50008C2F8F710E9440066ECF0E943B066BCF99
:100A600080915B0282FD06C08C2F8F71112309F4E7
:100A7000BBCFE9CF112349F0CF718C2F0E944C06D8
:100A800063E08C2F0E94CC0A56CF81E00E94EA0AD4
:100A9000023008F450CF82E00E94EA0A4CCF8C2F3B
:100AA0008F71D1CF002309F4BBCFD93349F4FFEFC5
:100AB00027EE63E0F15020406040E1F700C0000005
:100AC0008D2F0E94F90237CF0F931F93CF93DF939F
:100AD000EC01688179818A810E9457078C010E940C
:100AE00099060E940F06B801CE010E945B03DF91B8
:100AF000CF911F910F910895CF93DF93EC019881CF
:100B000089812B813C81232BB1F089238F3F99F080
:100B1000CE010E94C701811111C00E943C0A8823A6
:100B200051F08A81882339F080915B0282FF03C0F3
:100B300082E00E94EA0ADF91CF910895CE010E94DF
:100B40006405CE010E949A01F6CF80E090E00E94F9
:100B50007A1480E090E00E94A0140E94660A0E942D
:100B6000870A0E9465110E94481108950E942B0A6D
:100B70000E94A50508950E94550A0E94B605089591
:100B8000282F92959F70963091F060F4925F9F703D
:100B9000923030F481E0203F79F030F4283E30F09C
:100BA00080E008959A5FF3CF243FD1F7089581E064
:100BB000283EE0F3213FF9CF0895FC018381948121
:100BC000892B61F08181908189238F3F39F0808169
:100BD00091810E944A070E94C005089580E008950F
:100BE000A5E0B0E0E6EFF5E00C946C1D2596E2E0A0
:100BF0000C94881DA6E0B0E0E0E0F6E00C946C1DDB
:100C00002696E2E00C94881D08950E94040608953B
:100C10000E94050690939101809390010895089594
:100C20000E94080608952091900130919101822B35
:100C3000932B0E9408060895209190013091910114
:100C4000822393230E9408060895209190013091F9
:100C50009101822793270E94080608950E940406A6
:100C600008950E942E0608950E94310690938F01E8
:100C700080938E01089580E090E00E9434060895EC
:100C800021E030E0A90102C0440F551F8A95E2F728
:100C9000CA010E943406089521E030E002C0220F0C
:100CA000331F8A95E2F780918E0190918F01822BFC
:100CB000932B0E943406089521E030E002C0220FF9
:100CC000331F8A95E2F72095309580918E0190919F
:100CD0008F01822393230E943406089521E030E09F
:100CE00002C0220F331F8A95E2F780918E01909106
:100CF0008F01822793270E943406089520918E0148
:100D000030918F01822B932B0E94340608952091FD
:100D10008E0130918F01822393230E94340608951F
:100D200020918E0130918F01822793270E943406F3
:100D3000089508959B01677091E001C0990F6A952D
:100D4000EAF763E0369527956A95E1F7220F331F9E
:100D5000220F331FFA01E20FF31F40E050E0682F2B
:100D600070E08191DF0111979B01042E02C036953E
:100D700027950A94E2F7217021952827292328270F
:100D80002C934F5F5F4F4430510559F708959C01F4
:100D9000982F977083E0369527958A95E1F7220F73
:100DA000331F220F331FFB01E20FF31F40E050E01F
:100DB00080E0219130E0092E02C0369527950A94F3
:100DC000E2F721703327042E01C0220F0A94EAF7BC
:100DD000822B4F5F5F4F4430510559F70895482FDC
:100DE000862F933078F4433068F4292F30E0B9012E
:100DF000660F771F620F731F640F711D46E851E085
:100E00000E949A060895482F933080F4833070F43E
:100E1000292F30E0C901880F991F820F931F66E8C0
:100E200071E0840F911D0E94C706089580E0089527
:100E3000A0E0B0E0EEE1F7E00C94651D8C01E090DD
:100E40008E01F0908F018091900190919101E82A9C
:100E5000F92ACFE0D0E0CC24C394D12CC6010C2ECB
:100E600002C0880F991F0A94E2F78E219F21892BD7
:100E700049F4219798F7B12C8B2DCDB7DEB7E9E077
:100E80000C94811DBC2EB8018C2F0E948A0D0197F5
:100E900081F3F2CFCF93DF93D82FC92F0E94180789
:100EA0006D2F7C2F0E948A0DDF91CF9108951F93A3
:100EB000CF93DF93162FD72F90918501992341F07F
:100EC000862F972F0E944A07DF91CF911F91089597
:100ED000882381F0862F972F0E941807C82F682F2C
:100EE000812F9D2F0E94EF06612F7D2F8C2F0E9456
:100EF0008A0DEACF862F972F0E940307C82FF4CFC1
:100F00000F931F93CF93E0919201C6E080919301DC
:100F10008E1304C0CF911F910F9108950E2F10E0F2
:100F2000CE9FF0011124EC56FE4F40815181628129
:100F30007381848195810E94FA05F8013196E770EA
:100F4000E5CF4091C4015091C5016091C6017091F7
:100F5000C7018091C8019091C9010E94FA050895C6
:100F60001F93CF93DF938091C901803108F04CC06B
:100F70008091C601882309F447C080919201209195
:100F800093016091C4013091C501C091C701D09116
:100F9000C801732F76232817B9F190E0209709F440
:100FA00043C016E07F3F09F43FC0189FF001199F2E
:100FB000F00D1124DF01AC56BE4F11964C911197E4
:100FC00034132CC04C91461329C012964C911297A1
:100FD00041111EC013964D915C914C1B5D0B483C1A
:100FE0005105E0F48091C9018F7080618093C9013F
:100FF000E756FE4F80818F708061808384EC91E0A2
:101000000E947C050E948007DF91CF911F91089577
:101010000196877099272813C8CFF6CF019687705D
:1010200099272813BFCFF0CF01968770B4CF8F9246
:101030009F92AF92BF92DF92EF92FF920F931F9316
:10104000CF93DF93CDB7DEB72B970FB6F894DEBF03
:101050000FBECDBF8C0185E0F801DE01179601902F
:101060000D928A95E1F7F801F280A380B48084ECB8
:10107000882E81E0982E9091C4012091C501409165
:10108000C7015091C8014115510509F431C1822FA2
:1010900089238F3F09F42CC1D090C601B501641B90
:1010A000750BDD2009F4E8C08091C901683C710529
:1010B00008F0BBC03181803108F079C0EF2C3213C9
:1010C00014C02081291311C0F1101EC08F708061DF
:1010D0008093C9010E94A107C4010E947C058091F0
:1010E000C901F8018583E12C4FC09F818885AB2819
:1010F00089F0282F29232F3F69F0E0919201209158
:10110000930136E0FF20E1F08091C9018160809376
:10111000C901E9CFFF2039F3F7CF4E2F50E03E9FB2
:10112000F0011124EC56FE4F6181861306C06081E8
:10113000691303C062816111D6CFFA013196E7705D
:10114000E213EBCF8F8198850E944A07292F2295C1
:101150002F70903248F49F70992311F08823A1F0EA
:10116000805E883088F004C0225F2F70223028F023
:10117000C8010E947C05ED2C07C09F70992381F364
:10118000F8019581903160F78E2D2B960FB6F8946B
:10119000DEBF0FBECDBFDF91CF911F910F91FF90AA
:1011A000EF90DF90BF90AF909F908F900895321393
:1011B00012C0208129130FC0F1100DC08583C80112
:1011C0000E947C0586E0F801A4ECB1E001900D924C
:1011D0008A95E1F725C0C8010E94DD05882309F43E
:1011E0007BC0FF2009F478C08091C901803270F083
:1011F0002091C4013091C5013A8329831B82BD82AD
:10120000AC828E83CE0101960E947C0586E0F801B7
:10121000A4ECB1E001900D928A95E1F70E94B0072D
:101220000E94A107EE24E394AFCF803198F44F8160
:10123000588569857A858B850E94F00584EC91E05C
:101240000E947C0586E0F40111928A95E9F70E94DC
:10125000A10749CF31812313BECF20812913BBCFF2
:10126000F110B9CF8583C8010E947C0586E0F401A6
:1012700011928A95E9F7D6CF683C710588F5FF2071
:1012800059F1818128131EC0808189131BC0809170
:10129000C90180FD0EC0803160F08583807F803F72
:1012A00009F48DCF8581982F907F905F8F70892B67
:1012B00085CF86E0F801A4ECB1E001900D928A950B
:1012C000E1F7B0CFC8010E94DD0581119FCF809169
:1012D000C90181608093C901C8010E947C05A2CF29
:1012E0004F81588569857A858B850E94F005AACF44
:1012F000FF2091F3C8010E94DD05882369F386E091
:10130000F801A4ECB1E001900D928A95E1F784EC2C
:1013100091E00E949D0282CFACE0B0E0E2E9F9E00A
:101320000C946B1D4F83588769877A878B879C87BE
:10133000CE0107960E9417088823D9F08A859B85DD
:10134000892B61F058854F81852F84238F3F31F0A1
:1013500069857A858B859C850E94FA0516E08091C7
:10136000920190919301891344C02C96E3E00C9470
:10137000871D86E0FE013796DE01119601900D92E1
:101380008A95E1F78F819885209193014091920190
:101390006A857B85672B11F389238F3FF9F230E053
:1013A000C90101968770992750E08417950771F459
:1013B0000E94BB05109293011092920186E0E4EC2A
:1013C000F1E0DF011D928A95E9F7C8CF96E0929F80
:1013D000D001939FB00D1124AC56BE4FFE01319643
:1013E00001900D929A95E1F7809393010E948007F6
:1013F000B5CF189FC00111248C569E4F0E9417082C
:10140000882309F4B2CFE09192011E9FF0011124CC
:10141000EC56FE4F408151816281738184819581B8
:101420000E94FA058091920190E0019687709927B9
:101430008093920194CF682F8091000190910101D7
:101440000E9463150895682F809100019091010119
:101450000E947115089580910001909101010E94F0
:101460007F1508958091EA01859585958595089564
:101470008091EA01877008959091EA01977081E068
:10148000911101C080E0089580910D02089590911E
:101490000D02982B90930D020895982F90958091AE
:1014A0000D02892380930D02089510920D02089574
:1014B00090910C02982B90930C020895982F909580
:1014C00080910C02892380930C02089510920C02E3
:1014D00008958091EB01089508950E946C0A089583
:1014E00090915B0292FF08C09091EB01981721F058
:1014F0008093EB010E946D0A08958091EB0188238F
:1015000029F01092EB0180E00E946D0A0895CF93BC
:10151000DF93E0910001F091010180910D02808341
:10152000E0910001F0910101808190910C02892BE2
:1015300080839091EB01992381F0E0910001F0917B
:1015400001018081892B80838091000190910101AC
:101550000E94C61481110E947D0AC0910001D091A1
:10156000010140E250E06AEC71E0CE010E94A71D4B
:10157000892B59F080E2FE01AAECB1E001900D92B6
:101580008A95E1F7CE010E945014DF91CF91089522
:1015900008950E94C80A089590915B0292FF11C0BD
:1015A00098E0899F90011124622B6093EA010E94C8
:1015B0004C068091EA018595859585950E94C90A1A
:1015C00008950E944C0608951092EA0180E00E945E
:1015D000C90A08952091EA01809582238093EA0147
:1015E000982F9770911113C030E0482F082E000CEF
:1015F000550B2417350759F090915B0292FF07C0F5
:101600008595859585950E945C060E94E40A08955B
:1016100090915B0292FB222720F9281769F080FB4A
:1016200092F990935B0280915A0290915B020E9422
:10163000500B82E00E94EA0A089580915B0282FBCF
:10164000882780F991E089270E94080B089581E09E
:101650000E94080B089580E00E94080B08956FEF28
:101660007FEF80E090E00E94E91D089580E090E027
:101670000E94C51D9C0181E0273E3E4F09F080E09D
:10168000089582E090E00E94BD1D089583E090E0FF
:101690000E94BD1D089584E090E00E94C51D08953C
:1016A000BC0184E090E00E94E91D0895AB01BC01FB
:1016B0008FE090E00E94DD1D0895AB01BC0183E145
:1016C00090E00E94DD1D089560E070E0CB010E9473
:1016D0005D0B089560E070E0CB010E94560B0E9404
:1016E000640B089567EE7EEF80E090E00E94E91DB4
:1016F00060E082E090E00E94CB1D60E083E090E03B
:101700000E94CB1D109291011092900160E074E153
:1017100084E090E00E94E91D60E086E090E00E9495
:10172000CB1D6FEF87E090E00E94CB1D40E050E0C2
:10173000BA0188E090E00E94DD1D60E08DE090E05D
:101740000E94CB1D40E050E0BA0188E190E00E9489
:10175000DD1D60E087E190E00E94CB1D40E050E09D
:10176000BA018CE190E00E94DD1D60E070E080E253
:1017700090E00E94E91D40E050E0BA0188E190E06D
:101780000E94DD1D0E946A0B08950E94720B08954D
:10179000682F8EE090E00E94CB1D08950E944816AD
:1017A00060931702709318028093190290931A02A3
:1017B00060931302709314028093150290931602A3
:1017C0000895089508950E94E20B089508950E94D7
:1017D000E60B089586E79EE00E9439140E94E10B13
:1017E0000E94E30B089581E008950E94F30B089591
:1017F000089508950E94F80B0E94F90B08950E9425
:10180000950E0E943C0208950E9433160E94540FC8
:101810000E94FF0B0E94E70B0895A5E0B0E0E3E112
:10182000FCE00C94641D0E946A0F1091100280E08D
:101830000E94BB0E181334C01091110281E00E9467
:10184000BB0E18132DC01091120282E00E94BB0E35
:10185000181326C00E943C168C0180910E029091B4
:101860000F0208171907A1F08FEF89838A831B8263
:101870000E943C168160782F9D838C8349815A8118
:101880006B81892F0E94680210930F0200930E0251
:101890000E9486110E944F022596EAE00C94801D5A
:1018A00080911B0281FD0E94C10E0E94F50BA82EA3
:1018B00080E1C82E82E0D82E00E0802F0E94BB0E6F
:1018C000182FF60191916F01891741F1B82EB926B1
:1018D000F12CEE24E3948E2D8B218823B9F0AA20DD
:1018E000A9F0F9820A8391E08E2D8123811101C034
:1018F00090E09B830E943C168160782F9D838C83AF
:1019000049815A816B81892F0E946802F394EE0C01
:10191000F3E0FF12E0CFF601319710830F5F033041
:1019200061F60E94CE0BB4CFCF93DF930E948F0D50
:10193000EC01811522E59207C8F5811540E5940771
:1019400008F0C3C0803E9105F0F48D3C910508F08D
:1019500094C0883A910578F4853A910508F07FC0E3
:101960008130910521F00497813A910548F4CE0128
:10197000DF91CF910895885A9109499708F472C070
:10198000C0E0D0E0F4CF8115904468F4C11580E246
:10199000D80708F0A7C0C83ED10548F3CE019A95F4
:1019A0008F3F9E41E3CFDF70D06AE1CF803842E5C0
:1019B0009407C8F5803652E5950708F067C0C03433
:1019C00082E5D807B0F08C2F86958695877020E247
:1019D000829FC0011124C37021E030E0A90102C040
:1019E000440F551FCA95E2F7EA01C82BD92BDC68D2
:1019F000BECFC03252E5D50708F041C08C2F869586
:101A0000869520E2829FC0011124C37021E030E05E
:101A1000A90102C0440F551FCA95E2F7EA01C82B7D
:101A2000D92BDD68A4CF803C52E5950760F48F7117
:101A3000C03AD24508F03FC090E0982F8827EC01CB
:101A4000C46FD06A94CF805C9245809708F098CF9D
:101A5000DC2FCC27CC27DF71C06FD06A88CFA4974A
:101A6000D06485CFC85AD0E0CC0FDD1FCB5BDE4FF2
:101A70000990D881C02DD4647ACFD06578CFCF714A
:101A8000D0E0DC2FCC27C16FD06A71CF86958695C8
:101A9000877020E2829FC0011124C37021E030E0F2
:101AA000A90102C0440F551FCA95E2F7EA01C82BED
:101AB000D92BDA685CCF0E94330EC82FD0E0DC2F20
:101AC000CC27CC27DF71D06252CF8F710E94330EAA
:101AD00035E0D695C7953A95E1F7CF709C2FEC018C
:101AE000D06945CF8D2F8F710E94330E90E0982FD3
:101AF000882788279F718C2BEC01E5CF462F672F15
:101B0000733028F4433018F40E945401089580E0A3
:101B100090E008950E947E0D0E94940C0895803EEE
:101B20009105D1F1C8F48133910509F47FC048F4DF
:101B30008932910509F46FC08A32910509F47DC09C
:101B4000089589339105E1F082389105C9F0853314
:101B5000910509F45BC00895843E9105D1F148F4E4
:101B6000823E910531F1833E910541F181EE90E095
:101B70000895863E9105C1F1873E9105E1F10895F2
:101B800020915A022370211165C020915B0223FF2E
:101B900014C089E290E0089520915A0220FD43C0CC
:101BA00030915B0230FF09C024FF4EC080E090E01E
:101BB000089520915A0222FDF7CF089520915A02EC
:101BC00022FD45C030915B0230FD44C024FFF5CFBB
:101BD000EDCF20915B0221FFF0CF80915A0284FD6E
:101BE000E5CF87EE90E0089520915A0223FFE5CFDC
:101BF00024FDDCCFF6CF20915A0223FD2EC0309178
:101C00005B0231FFE3CF84EE90E0089520915A0209
:101C100025FFD3CFBECF20915A0225FD21C02091B0
:101C20005B0223FFCACF89E390E0089520915A0216
:101C300026FFC3CF8AE290E0089520915A0226FF42
:101C4000BCCF81E390E0089583EE90E0089582EEAA
:101C500090E0089580EE90E0089586EE90E008957B
:101C600085E390E0AACF90915A0292FF06C0282FF8
:101C700028712830F9F4877F846093FF06C0282FED
:101C800028712831F1F4877E846120915B0220FF66
:101C900006C0382F38713830D9F4877F816021FF32
:101CA00006C0282F28712831D1F4877E816194FDE8
:101CB000877E0895282F24712430F9F68B7F886061
:101CC000DCCF282F2471243101F78B7E8861DDCF92
:101CD000382F3171313019F78E7F8860E0CF282F8F
:101CE0002171213121F78E7E8861E1CF80E0089556
:101CF0000E942F0B08950E946A0F2FEF86E791E054
:101D0000215080409040E1F700C000000E946A0F1F
:101D100080E00E94BB0E80FF04C00E94780E0E94EB
:101D2000981608950E947B0E08950E94360B81112B
:101D300002C00E94C50B0E94410B80931B020E94AF
:101D40004B0B90935B0280935A020E94920E0E946A
:101D5000460B90E00E94100680918E0190918F01B9
:101D60000E943106089508950E94B30E08950895C3
:101D70000E94B70E0895E82FF0E0E15AFD4F8081F0
:101D80000895089580EA8A95F1F7089500C00895AE
:101D90000E94C20E0895F894E82FE295EF70F0E0EB
:101DA00041A18F7021E030E0B90102C0660F771FBA
:101DB0008A95E2F7CB01962F9095942391A392A157
:101DC000892B82A37894089586E60E94CB0E87E93A
:101DD0000E94CB0E86EC0E94CB0E81E90E94CB0EB6
:101DE00080E90E94CB0E84E90E94CB0E0895A0E00A
:101DF000B0E0EDEFFEE00C94661DEC01D62E062F50
:101E000010E0C80186589E4F7C01FC0180818F3F05
:101E100009F445C0F894E82FE295EF70F0E091A145
:101E20008F7021E030E001C0220F8A95EAF7892FF8
:101E3000822B81A382A12095282322A378940E943B
:101E4000C60EE7E7F1E091E0C12C81918F3F81F070
:101E5000A82FA295AF70A05EB0E02C9130E08F70FB
:101E600002C0359527958A95E2F72170892F2111B7
:101E700080E0C82A990F81E0EA37F80731F7F701C7
:101E800080818F3F11F00E94CB0E61E0C11001C034
:101E900060E08D2D0E94C80EC00FD11FC882CDB743
:101EA000DEB7E8E00C94821D0E94E40E83E0EFE5CB
:101EB000F2E0DF01982F1D929A95E9F7ECE5F2E048
:101EC000DF011D928A95E9F783E00E94A80F0E9426
:101ED000A8010895A3E0B0E0E0E7FFE00C946B1DDB
:101EE0001A8219821B8260E0CE0101960E94F70ED1
:101EF00061E0CE0101960E94F70E62E0CE010196EC
:101F00000E94F70E43E050E0BE016F5F7F4F8CE50B
:101F100092E00E94A71D21E0892B81F420E043E09C
:101F20006FE572E08CE592E00E94A90F182F0E94E5
:101F3000AB01812F2396E3E00C94871D89819A8160
:101F4000AB8180935C0290935D02A0935E02E7CF29
:101F50000895A0E0B0E0EFEAFFE00C94671DD82EF2
:101F6000E92EF62E072FC42F222349F081E080931B
:101F70001E020E943C1690931D0280931C02109139
:101F80001E02111107C010E0812FCDB7DEB7E7E0C8
:101F90000C94831D80911C0290911D020E94651675
:101FA000059788F3D0E0AE016D2D7E2D8F2D902FFB
:101FB0000E94A71D892B51F0AE016D2D7E2D8F2D16
:101FC000902F0E94B41D10921E02DECF10E0FBCFB6
:101FD0000E9421180E94040C0E942E1808950E944D
:101FE00033180E940D0C0E944D1808950E94D515BB
:101FF0000E9407180E94EA0B0E94E80F0E94EF0F50
:102000000E94FA0BFBCF8091250280FF0DC06091EA
:10201000070170E0660F771F60387105C0F5611524
:102020007105B9F1862F089581FF07C060910701FE
:1020300084E0689FB0011124EFCF82FF04C060915B
:10204000070188E0F6CF809124028823E9F090917F
:1020500006016091070170E0891730F093E0660F88
:10206000771F9A95E1F7D8CF869F9001879F300D13
:10207000112483E0220F331F8A95E1F7692F70E066
:10208000C9010E94421DC8CF68E070E0CBCF8FE746
:10209000089581E008958091250280FF0CC0609131
:1020A000030170E0759567957595679561157105E4
:1020B00061F1862F089581FF06C06091030170E0F1
:1020C00075956795F3CF6091030170E082FD15C0AF
:1020D000209123022223B1F090910201609103012B
:1020E00070E0291750F4269FA001279F500D11245E
:1020F000692F70E0CA010E94421D60387105B0F27C
:102100008FE7089561E070E0D4CF81E00895E3E3C4
:10211000E80FE331E0F5F0E0E35FF14E0C94561D7B
:102120000E94031081958093290208950E94031054
:10213000FACF0E94031081958093280208950E948F
:102140000310FACF0E944B1080932A0208950E9438
:102150004B108195F9CF0E944B10819580932B02F3
:1021600008950E944B10FACF815D990B21E030E079
:1021700001C0220F8A95EAF780912702822B809373
:102180002702089580912502816080932502089599
:10219000809125028260F9CF809125028460F5CF7D
:1021A000409128028D3C59F48091290287FF0DC08F
:1021B00010922902442359F41092240208C08E3C44
:1021C00081F48091290218169CF3442381F08091B8
:1021D0002A0290912B02892B811159C0109223025F
:1021E00008958F3C41F447FFF0CF10922802809170
:1021F00029028823E0CF803D19F41416B4F3E5CF0B
:1022000090912A02893D29F41916FCF610922A02AF
:10221000DCCF8A3D19F497FFD8CFF8CF90912B02ED
:102220008B3D29F497FFD1CF10922B02CECF8C3D5E
:1022300019F41916CCF3C9CF9FE2980F983090F497
:10224000815D990B21E030E0B90102C0660F771F74
:102250008A95E2F7CB01809590912702892380939C
:102260002702B3CF8D3D31F4809125028E7F80937C
:102270002502ABCF8E3D21F4809125028D7FF7CFD3
:102280008F3D09F0A2CF809125028B7FF0CF08957A
:102290000E943C162091280230912902232B2223F0
:1022A00021F0809321029093220220912A02309102
:1022B0002B02232B222321F080931F0290932002D4
:1022C00086E292E00E946B14089586E0E6E2F2E076
:1022D000DF011D928A95E9F71092240210922302E1
:1022E000109225020895FC01828181110DC0838125
:1022F00081110AC08481811107C081E0958191110B
:1023000001C080E08170089581E0FCCFA6E0B0E0DC
:10231000ECE8F1E10C94691D86E0E6E2F2E09E0152
:102320002F5F3F4FD90101900D928A95E1F71092EE
:1023300028021092290210922A0210922B028B81FD
:102340009C81892B8901882391F0809121029091B1
:1023500022020E9465169C01809124028823C9F103
:102360004091080150E04217530708F43FC08D81A7
:102370009E81892B882399F080911F0290912002E1
:102380000E9465169C0180912302882309F46DC088
:102390004091040150E04217530708F474C0B8019B
:1023A00086E292E00E949115811105C086E292E0DA
:1023B0000E94731181110E94481186E0F801A6E283
:1023C000B2E001900D928A95E1F72696E5E00C9433
:1023D000851D409109019AE0499FA00111244217EF
:1023E000530728F68F5F8093240202C08F3FD1F7F6
:1023F000FB80FF2059F00E94031091E01F140CF0A5
:102400009FEF899F802D112480932802FC80FF205C
:1024100059F00E94031091E01F140CF09FEF899F68
:10242000802D11248093290230912802332309F44E
:102430009ECF20912902222309F499CF45EB340342
:10244000C0011124892F911101C081E080932802DD
:1024500045EB240390011124332319F03093290212
:1024600086CF81E08093290282CF409105019AE0D6
:10247000499FA00111244217530708F090CF8F5FA6
:102480008093230202C08F3FD1F7FD80FF2059F0D7
:102490000E944B1091E01F140CF09FEF899F802D3C
:1024A000112480932A02FE80FF2059F00E944B10D5
:1024B00091E01F140CF09FEF899F802D11248093D1
:1024C0002B0230912A02332309F469CF20912B0289
:1024D000222309F464CF45EB3403C0011124892F72
:1024E000911101C081E080932A0245EB2403900101
:1024F0001124332319F030932B0251CF81E08093C4
:102500002B024DCFCF93DF93EC01FB018281882317
:1025100009F4D2C09E0130572332310508F0B2C011
:102520000E944B0B90935B0280935A02FE01E15094
:10253000F047E232F10520F4E05EF14E0C94561DB6
:1025400080915A02816080935A0293C080915B020D
:10255000886080935B028DC080915A028260F3CFC5
:1025600080915A028460EFCF80915A028860EBCF4D
:1025700080915B028160EDCF80915B028260E9CF48
:1025800080915A028061DFCF80915A028062DBCF56
:1025900080915A028064D7CF0E94BB0580915A0275
:1025A0008068D1CF80915A028C60CDCF80915B0240
:1025B0008360CFCF80915A028E7FC5CF80915B021E
:1025C000877FC7CF80915A028D7FBDCF80915A02FD
:1025D0008B7FB9CF80915A02877FB5CF80915B0204
:1025E0008E7FB7CF80915B028D7FB3CF80915A02EF
:1025F0008F7EA9CF80915A028F7DA5CF80915A02FC
:102600008F7BA1CF0E94BB0580915A028F779BCF11
:1026100080915A02837F97CF80915B028C7F99CF04
:1026200080915A0282FB992790F921E0922790FB32
:1026300082F990FB83F987CF80915B02982F909568
:1026400091708E7F892B90FB81F983CF90915A02F4
:10265000892F8F7B96FF806476CF0E94BB05909177
:102660005A02892F97FB87F980586DCF81E00E942D
:10267000C80B80915A0290915B020E94500B0E94FD
:10268000BB0580E0DF91CF91089580E0F0CF90917D
:102690005A02892F8F7E94FF806155CF90915A0204
:1026A000892F8E7F90FF81604ECF90915B02892FA2
:1026B000877F93FF88604DCF81E0E4CFCF93DF9396
:1026C000EB0186319C4719F50E94440A9A819923AF
:1026D000A1F08A7A91E0811101C090E090932C02E0
:1026E000882349F085E30E941B0A0E94870A80E044
:1026F000DF91CF91089589E2F6CF80912C02882353
:1027000021F085E30E94230AF0CF89E2FBCF81E02C
:10271000EFCF0F931F93CF93DF93C42FD22FFC01E2
:1027200082818823C9F040932F020E943C16909327
:102730002E0280932D0280E28C0F883040F4C77007
:1027400081E001C0880FCA95EAF70E944D03DF912E
:10275000CF911F910F91089510912F0214133CC037
:1027600080912D0290912E020E946516883C910561
:1027700098F5C0E2CD0F1D1741F180E2810F88303E
:1027800040F4177081E001C0880F1A95EAF70E94A3
:102790005403C83020F0802F0E944403D8CF91E02A
:1027A0008D2F877001C0990F8A95EAF7892F0E94B3
:1027B0004D03802F0E944403D77081E001C0880F31
:1027C000DA95EAF70E945403C2CF802F0E94440397
:1027D000C83008F0BCCFF0CF80E28C0F883008F012
:1027E000B6CFC77081E001C0880FCA95EAF7EACF7B
:1027F0000F93FC01CB01E851FC47E730F10590F560
:10280000EE5BF14E0C94561D06E221EE41EE6AE1BC
:102810007CE70E94891380E00F91089507E225EE7E
:1028200045EE6BE17CE7F5CF06E221EE40EE68E194
:102830007CE7EFCF07E225EE44EE69E17CE7E9CFE4
:1028400006E221EE42EE6CE17CE7E3CF07E225EE03
:1028500046EE6DE17CE7DDCF08E221E045EE6EE17A
:102860007CE7D7CFFB018281811110922F0281E09A
:10287000D3CF90937F0180937E010895909335028A
:10288000809334020895E0913402F091350230973C
:1028900029F00190F081E02D0995089580E00895D8
:1028A000DC01E0913402F0913502309799F080918B
:1028B0001201882351F080915A0287FF06C08C9143
:1028C00011968C93119786E08C930280F381E02D12
:1028D000CD0109950895DC01E0913402F0913502B3
:1028E000309739F082E08C930480F581E02DCD01A2
:1028F00009950895A3E0B0E0E0E8F4E10C946C1DC4
:102900009C01809132029091330282179307A1F0CB
:102910003093330220933202E0913402F091350279
:10292000309751F083E089833B832A830680F781C7
:10293000E02DCE01019609952396E2E00C94881DC6
:10294000A3E0B0E0E6EAF4E10C946C1D9C018091F8
:1029500030029091310282179307A1F03093310237
:1029600020933002E0913402F0913502309751F01B
:1029700084E089833B832A830680F781E02DCE01A2
:10298000019609952396E2E00C94881D9C012E5F28
:102990003F4F80911201882321F080915A029DE1DE
:1029A00087FF95E080E0F90140812F5F3F4F4111A3
:1029B0008F5F9150C0F708959C01662301F18091CB
:1029C00012018823F1F080915A0287FF1AC0462F26
:1029D000469546954695603F90F4677081E090E09B
:1029E00002C0880F991F6A95E2F7240F311DF90183
:1029F000228130E02823392381E0232B71F480E009
:102A00000895F9013296285F3F4F8191861721F092
:102A1000E217F307D1F7F3CF81E008959C01FC01A1
:102A200032968FEF90E04191461751F08F3F19F4A5
:102A3000411101C0892F9F5F9630A9F78F3F09F49C
:102A40000895280F311D87FD3A95F9016283089595
:102A50009C01FC013296285F3F4F8191861303C091
:102A6000DF0111971C92E217F307B9F70895FC01F3
:102A7000862F869586958695603F60F4E80FF11D58
:102A8000677021E030E001C0220F6A95EAF7828189
:102A9000822B82830895FC01862F869586958695E4
:102AA000603F80F4E80FF11D677081E090E09C01C9
:102AB00002C0220F331F6A95E2F7B9016095828147
:102AC00068236283089520911201222339F0209116
:102AD0005A0227FF03C00E94371508950E940E1561
:102AE000089520911201222339F020915A0227FFE4
:102AF00003C00E944B1508950E9428150895FC01FB
:102B0000329680911201882351F080915A0287FFFA
:102B100006C08EE1DF011D928A95E9F7089586E0EF
:102B2000F9CF46E050E00E94A71D9C0181E0232BD5
:102B300009F480E0089508950E949B1508958F5F21
:102B4000809336020E949C15089583E0809336029C
:102B50000E949C1508950E949F15089581E080931E
:102B600036020E949C1508950E94AE15089508959E
:102B700008950E94B8150895089508950E94B71504
:102B80000895CF930E94BC150E946A0F0E94BD1544
:102B9000C0E08C2F0E94BB0E811105C0CF5FC330F7
:102BA000C1F7CF91089581E0FCCF85B7806885BFDC
:102BB00085B7806885BF08951F921FB61F921124A4
:102BC0008F939F93AF93BF9380913702811113C06E
:102BD0008091620290916302A0916402B0916502BB
:102BE0004196A11DB11D8093620290936302A09350
:102BF0006402B0936502BF91AF919F918F911F9036
:102C00001FBE1F90189580916A02843031F10E9496
:102C10001C021092370288E190E020E40FB6F8948D
:102C2000A895809360000FBE2093600083B7817FDA
:102C3000846083BF83B7816083BF7894889583B7AE
:102C40008E7F83BF0FB6F894A8958091600088614D
:102C500080936000109260000FBE08950E94BB0533
:102C60000E942102089582E084BD93E095BD9AEF11
:102C700097BD80936E0008952FB7F89480916202FB
:102C800090916302A0916402B09165022FBF0895F4
:102C9000A4E0B0E0EEE4F6E10C946C1D8FB7F8947C
:102CA000209162023091630240916402509165026A
:102CB00029833A834B835C838FBF69817A818B81BF
:102CC0009C812496E2E00C94881D9C014FB7F894F7
:102CD0008091620290916302A0916402B0916502BA
:102CE0004FBF821B930B089578941F921FB61F92BB
:102CF00011248F939F93AF93BF9380916202909121
:102D00006302A0916402B09165020196A11DB11DFC
:102D10008093620290936302A0936402B093650271
:102D2000BF91AF919F918F911F901FBE1F901895DB
:102D300087E797E7909301088093000888E19AE07D
:102D40000FB6F894A895809360000FBE9093600032
:102D5000FFCF88E19AE00FB6F894A89580936000C1
:102D60000FBE90936000FFCF809158020895282FE6
:102D7000CB01BA0130916A023430E1F42F70209314
:102D8000E9002FEF3091E80035FD07C035ED3A95A9
:102D9000F1F7000021502111F5CF2091E80025FF27
:102DA00009C040E050E00E94C0188091E8008E7792
:102DB0008093E8000895BC0143E050E082E00E9467
:102DC000B7160895BC0146E050E082E00E94B716B5
:102DD0000895CF93DF93D82FC92F809112018111CD
:102DE00013C048E050E06D2F792F81E00E94B716A4
:102DF00080E2ED2FFC2FA8E3B2E001900D928A95BE
:102E0000E1F7DF91CF91089580915A0287FD06C0C6
:102E100048E081E050E06D2F7C2FE8CF40E282E077
:102E2000F9CF80916902811109C00E94481A0E945D
:102E3000A51A8091E20084608093E20008951092C8
:102E4000690208950E94AE1508956091660281E0BE
:102E5000611101C080E00E94A515089590916A0259
:102E600081E0943009F080E0609166020E94AB1529
:102E7000089542E061EC81E00E94C41942E261ECF5
:102E800082E00E94C41990916A0281E0943009F0B6
:102E900080E0609166020E949F15089580916C0207
:102EA000893089F148F4823009F4A0C0833009F4F4
:102EB0005AC0813041F008958A3009F487C08B30C0
:102EC00009F46CC0089580916B02813A09F04AC000
:102ED0008091E800877F8093E80080916F02909155
:102EE0007002892B61F060E080E090E070E00E9469
:102EF0000F198091E8008B778093E800089560E2D5
:102F000088E392E0F3CF80916B02813259F5809192
:102F10006F0290917002029728F58091E800877FF8
:102F20008093E8008091E80082FF18C09091F30040
:102F30008091F200029731F48091F100813011F01C
:102F4000863021F48091F100809358028091E8004E
:102F50008B778093E8000E94F81904C080916A0280
:102F60008111E0CF089580916B02813AD9F7809169
:102F70006F0290917002892BA9F78091E800877FFA
:102F80008093E8008091E80080FFFCCF80911201DF
:102F90008093F1008091E8008E77DBCF80916B0207
:102FA000813201F780916F0290917002892BD1F6E6
:102FB0008091E800877F8093E8000E94F819809153
:102FC0006D02809312010E94BB05089580916B02EF
:102FD000813241F68091E800877F8093E8000E946B
:102FE000F81980916E0280935902089580916B02C6
:102FF000813A09F0B7CF8091E800877F8093E8009D
:103000008091E80080FFFCCF80915902C1CF84B746
:10301000877F84BF0FB6F894A8958091600088617F
:1030200080936000109260000FBE80E890E00FB6C1
:10303000F89480936100909361000FBE0E94B415D4
:1030400008950E94481A0E94A51AE2EEF0E08081DD
:103050008460808378940E94281D08958AE091E01E
:103060000E943E14089580916A02853031F4809167
:103070006A02853019F00E942E1608950E940316E8
:1030800080916802882399F30E94C115882379F3FF
:103090000E94AA180E94BB05EACF08950E94511809
:1030A0000895FC01CB01DA012F2F3327233031059E
:1030B000E1F058F421303105C9F122303105D9F160
:1030C00080E090E020E030E01EC02132310521F1A7
:1030D00022323105A9F7892BC1F16130710581F7E1
:1030E00086EB90E023E431E00EC0CF019927E13078
:1030F00069F08230910569F0E2EFF0E0892B01F789
:10310000849190E09F012D933C930895E4EDF0E0CD
:10311000F7CFEEEBF0E0F4CF892B91F06130710541
:1031200079F689E090E021E231E0EDCF82E190E0B4
:1031300021E331E0E8CF8BE390E026EF30E0E3CF0E
:1031400089E090E028E031E0DECF80E490E029EFF4
:1031500031E0D9CF80E189BD82E189BD09B400FEAB
:10316000FDCF8091D8008F7D8093D8008091E000C2
:1031700082608093E0008091E00081FDFCCF0895A3
:10318000AF92BF92CF92DF92FF920F931F93CF9394
:10319000DF936C01EB018A010E94171AF82E81114E
:1031A00023C00115110539F0F80180819181C81BF8
:1031B000D90BC80ED91EA12CB12C2097A9F0809153
:1031C000E80085FD22C08091E8008E778093E800BA
:1031D00001151105A1F0F801808191818A0D9B1DD7
:1031E0009183808385E0F82E8F2DDF91CF911F9101
:1031F0000F91FF90DF90CF90BF90AF9008950E9405
:10320000171A8823E1F2F82EEFCFF60181916F01B2
:103210008093F1002197FFEFAF1ABF0ACECFFC01D8
:103220009B0180917102909172028617970718F0A6
:10323000672B61F0C90140E0009771F441110CC0A7
:103240008091E80082FF35C080E008958091E80019
:103250008E778093E800EECF20916A022223A9F1B5
:103260002530A9F12091E80023FD2DC02091E80030
:1032700022FDE6CF2091E80020FFDECF3091F30061
:103280002091F200009719F02830310558F041E004
:103290002830310509F040E02091E8002E77209396
:1032A000E800CACF41914093F10001972F5F3F4F53
:1032B000E9CF80916A02882341F0853041F0809106
:1032C000E80083FFBDCF81E0089582E0089583E0A8
:1032D0000895FC019B018091710290917202861702
:1032E000970718F0672B61F0C90140E0009771F46F
:1032F00041110CC08091E80082FF36C080E0089543
:103300008091E8008E778093E800EECF20916A02EA
:103310002223B1F12530B1F12091E80023FD2EC028
:103320002091E80022FDE6CF2091E80020FFDECFCB
:103330003091F3002091F200009719F02830310508
:1033400058F041E02830310509F040E02091E800D4
:103350002E772093E800CACF44914093F100319634
:1033600001972F5F3F4FE8CF80916A02882341F099
:10337000853041F08091E80083FFBCCF81E0089563
:1033800082E0089583E00895982F973028F08F7099
:103390008093E90081E008959093E900242F762F2F
:1033A00050E0981731F07091EC002091ED005091B1
:1033B000F00021FD02C09F5FE8CF3091EB003E7F1F
:1033C0003093EB003091ED003D7F3093ED00309174
:1033D000EB0031603093EB007093EC002093ED0034
:1033E0005093F0002091EE0027FDE5CF80E0089596
:1033F00080916B0287FF13C08091E80082FF06C0B6
:103400008091E8008B778093E80004C080916A0285
:103410008111F2CF089580916A028823D9F38091B7
:10342000E80080FFF8CF8091E8008E77ECCF209104
:10343000E4003091E50095E6A9018091EC008170EF
:10344000882331F08091E80080FF06C080E0089575
:103450002091E80022FD1BC080916A02882391F030
:10346000853091F08091EB0085FD10C02091E40043
:103470003091E5004217530701F391509111DCCFD1
:1034800084E0089582E0089583E0089581E008953E
:103490000E94B71A0E94BF1AE0EEF0E080818160BE
:1034A0008083E8EDF0E080818F77808319BCA7ED01
:1034B000B0E08C918E7F8C9380818F7E8083109280
:1034C000690208950F931F93CF93DF930E94B71A59
:1034D0000E94BF1AC8EDD0E088818F7788838881E9
:1034E0008068888388818F7D888319BC10926A02E6
:1034F00010926602109268021092670200EE10E0CD
:10350000F80180818B7F808388818160888342E09D
:1035100060E080E00E94C419E1EEF0E080818E7FDF
:103520008083E2EEF0E0808181608083808188602A
:103530008083F80180818E7F808388818061888389
:10354000DF91CF911F910F910895E8EDF0E0808118
:103550008F7E8083E7EDF0E080818160808384E06E
:1035600082BF81E0809369020E94621A0895E8EDAB
:10357000F0E080818E7F80831092E20008951092A7
:10358000DA001092E10008951F920F920FB60F9289
:1035900011242F933F934F935F936F937F938F9358
:1035A0009F93AF93BF93EF93FF938091E10082FFCE
:1035B0000BC08091E20082FF07C08091E1008B7F09
:1035C0008093E1000E94271D8091DA0080FF19C0DE
:1035D0008091D80080FF15C08091DA008E7F8093A3
:1035E000DA008091D90080FF94C080E189BD82E13A
:1035F00089BD09B400FEFDCF81E080936A020E947C
:1036000011178091E10080FF19C08091E20080FFD6
:1036100015C08091E2008E7F8093E2008091E200ED
:1036200080618093E2008091D80080628093D8000E
:1036300019BC85E080936A020E9425178091E10001
:1036400084FF29C08091E20084FF25C080E189BD0C
:1036500082E189BD09B400FEFDCF8091D8008F7D45
:103660008093D8008091E1008F7E8093E10080916B
:10367000E2008F7E8093E2008091E200816080937F
:10368000E20080916602882309F449C084E08093B7
:103690006A020E942E178091E10083FF29C0809169
:1036A000E20083FF25C08091E100877F8093E100E5
:1036B00082E080936A02109266028091E1008E7F20
:1036C0008093E1008091E2008E7F8093E200809100
:1036D000E20080618093E20042E060E080E00E94CE
:1036E000C4198091F00088608093F0000E94221736
:1036F000FF91EF91BF91AF919F918F917F916F91CA
:103700005F914F913F912F910F900FBE0F901F909F
:10371000189519BC10926A020E941F1772CF8091EF
:10372000E30087FF02C083E0B2CF81E0B0CF1F92F9
:103730000F920FB60F921124FF920F931F932F93A6
:103740003F934F935F936F937F938F939F93AF9329
:10375000BF93CF93DF93EF93FF9309EE10E0F8014F
:103760008081C091EC00C795CC27C7958F70FC2E47
:10377000F82A1082C0EFD0E08881877F8883789410
:103780000E94E01BF8011082888188608883CF2D19
:10379000CF70C083FF91EF91DF91CF91BF91AF9137
:1037A0009F918F917F916F915F914F913F912F9159
:1037B0001F910F91FF900F900FBE0F901F901895C3
:1037C000AAE2B0E0E6EEFBE10C946B1D8BE692E022
:1037D000FC0101962091F100208322E083379207BB
:1037E000B9F70E944E178091E80083FF38C080919E
:1037F0006B0290916C029A3090F5E92FF0E0E75B54
:10380000F14E0C94561D803889F0823841F5809134
:103810006F028F70873018F58093E9008091EB007C
:1038200085FB882780F91092E90006C08091670225
:1038300090916802911182609091E800977F909337
:10384000E8008093F1001092F1008091E8008E77FB
:1038500023C0811116C080916D02813011F18091D9
:10386000E80083FF0AC08091E800877F8093E8002A
:103870008091EB0080628093EB00AA96E3E00C94C9
:10388000871D823061F780916D02882389F0109244
:10389000E9008091E800877F8093E8000E94F81992
:1038A000DECF81E0933009F080E080936802EFCFB3
:1038B00080916F028F702FEF280F263080F6809353
:1038C000E9002091EB0020FFE2CF933031F48091AA
:1038D000EB0080628093EB00DACF9091EB00906177
:1038E0009093EB0021E030E0A90102C0440F551F86
:1038F0008A95E2F74093EA001092EA008091EB008B
:103900008860E8CF8111ABCF10916D021F77809155
:10391000E3008078812B8093E3008091E800877F2B
:103920008093E8000E94F8198091E80080FFFCCFA6
:103930008091E30080688093E30083E0111101C06F
:1039400082E080936A028BCF8058823008F087CF64
:1039500080916D0290916E028C3D53E0950799F530
:1039600083E08A838AE289834FB7F894DE01139655
:1039700020E03EE051E2E32FF0E0509357008491C5
:1039800020FF03C082958F703F5F8F708A30C8F030
:10399000895C90E08D939D932F5F243161F74FBF39
:1039A0008091E800877F8093E8006AE270E0CE01B2
:1039B00001960E940F198091E8008B778093E800B0
:1039C0004ECF805DE6CF60916F0270917002AE01C4
:1039D0004F5F5F4F0E944E18BC01892B09F43FCF07
:1039E0008091E800877F8093E80089819A810E9416
:1039F0006919E1CF803809F032CF8091E800877FE4
:103A00008093E800809166028093F1001ECF8111BF
:103A100026CF90916D02923008F021CF8091E8007E
:103A2000877F8093E800909366020E94F819809146
:103A30006602882331F084E080936A020E9439177D
:103A40000ECF8091E30087FDF6CF81E0F5CF08959A
:103A5000CF9380916A02882399F08091E900C09108
:103A6000EC00C795CC27C7958F70C82B1092E90042
:103A70008091E80083FD0E94E01BCF70C093E900B5
:103A8000CF91089597FB072E16F4009407D077FD89
:103A900009D00E94931D07FC05D03EF490958195B6
:103AA0009F4F0895709561957F4F0895EE0FFF1F0A
:103AB0000590F491E02D09942F923F924F925F92DE
:103AC0006F927F928F929F92AF92BF92CF92DF922E
:103AD000EF92FF920F931F93CF93DF93CDB7DEB793
:103AE000CA1BDB0B0FB6F894DEBF0FBECDBF099427
:103AF0002A88398848885F846E847D848C849B847E
:103B0000AA84B984C884DF80EE80FD800C811B818B
:103B1000AA81B981CE0FD11D0FB6F894DEBF0FBEBA
:103B2000CDBFED010895AA1BBB1B51E107C0AA1F21
:103B3000BB1FA617B70710F0A61BB70B881F991F4E
:103B40005A95A9F780959095BC01CD010895FB0188
:103B5000DC0104C08D910190801921F44150504046
:103B6000C8F7881B990B0895FB01DC0102C0019086
:103B70000D9241505040D8F70895F999FECF92BD6B
:103B800081BDF89A992780B50895A8E1B0E042E098
:103B900050E00C94F11D262FF999FECF92BD81BD06
:103BA000F89A019700B4021639F01FBA20BD0FB67B
:103BB000F894FA9AF99A0FBE08950396272F0E9457
:103BC000CC1D0E94CB1D252F0E94CC1D242F0C94B0
:103BD000CC1D0196272F0E94CC1D0C94CB1DDC011F
:103BE000CB01FC01F999FECF06C0F2BDE1BDF89A08
:103BF000319600B40D9241505040B8F70895F894B2
:103C0000FFCF92039203C203C2034A046704ED0389
:103C1000ED036C04E604F704F70490109610991075
:103C20009F10B410B410B410B410B410B410B41089
:103C3000B410A210A710AB10B110C210C810CC1055
:103C4000DA124E13E212AC12B012E612B412EA12F9
:103C5000F612C0124713C412FA12C812FE1226132B
:103C6000CC1202132D13D21208131013B812EE1235
:103C7000BC12F212D6120C131C1336134513A612E3
:103C8000DE12551314141A1404140E1420142614DE
:103C90002C14031C291C2F1C291C2F1C821CA41C47
:063CA0002F1CFA1C071D99
:103CA600EC01280850011E0A1401B416E916E216A2
:103CB600DB1601E200E900EA00B500B600B700CD68
:103CC600008301CC008A019201940121022302247F
:103CD600022502260227022A02B300B4006F0070F2
:103CE600009F01CB01E200E900EA00B500B600B78B
:103CF60000CD008301CC008A0192019401210223A8
:103D06000224022502260227022A02B300B4006F0B
:0E3D16000070009F01CB019190946697C6004B
:00000001FF
